{
  "contracts/MixinResolver.sol": {
    "MixinResolver": {
      "abi": [
        {
          "inputs": [],
          "stateMutability": "nonpayable",
          "type": "constructor"
        },
        {
          "anonymous": false,
          "inputs": [
            {
              "indexed": false,
              "internalType": "string",
              "name": "name",
              "type": "string"
            },
            {
              "indexed": false,
              "internalType": "address",
              "name": "destination",
              "type": "address"
            }
          ],
          "name": "CacheUpdated",
          "type": "event"
        },
        {
          "inputs": [],
          "name": "CONTRACT_NAME",
          "outputs": [
            {
              "internalType": "string",
              "name": "",
              "type": "string"
            }
          ],
          "stateMutability": "view",
          "type": "function"
        },
        {
          "inputs": [],
          "name": "_owner",
          "outputs": [
            {
              "internalType": "address",
              "name": "",
              "type": "address"
            }
          ],
          "stateMutability": "view",
          "type": "function"
        },
        {
          "inputs": [
            {
              "internalType": "string",
              "name": "",
              "type": "string"
            }
          ],
          "name": "addressCache",
          "outputs": [
            {
              "internalType": "address",
              "name": "",
              "type": "address"
            }
          ],
          "stateMutability": "view",
          "type": "function"
        },
        {
          "inputs": [
            {
              "internalType": "string",
              "name": "_name",
              "type": "string"
            },
            {
              "internalType": "address",
              "name": "_destination",
              "type": "address"
            }
          ],
          "name": "updateCache",
          "outputs": [],
          "stateMutability": "nonpayable",
          "type": "function"
        }
      ],
      "evm": {
        "bytecode": {
          "linkReferences": {},
          "object": "608060405234801561001057600080fd5b50600180546001600160a01b031916331790556103a8806100326000396000f3fe608060405234801561001057600080fd5b506004361061004c5760003560e01c8063614d08f814610051578063a4b19d0114610093578063b2bdfa7b146100df578063fc6f4c1b146100f2575b600080fd5b61007d6040518060400160405280600d81526020016c26b4bc34b72932b9b7b63b32b960991b81525081565b60405161008a91906102e8565b60405180910390f35b6100c76100a136600461020a565b80516020818301810180516000825292820191909301209152546001600160a01b031681565b6040516001600160a01b03909116815260200161008a565b6001546100c7906001600160a01b031681565b610105610100366004610245565b610107565b005b8060008360405161011891906102cc565b90815260405190819003602001812080546001600160a01b03939093166001600160a01b0319909316929092179091557f0f721ab865154f222f0053098fb6752276624e5310bcb2bb9269d205ece331d5906101779084908490610302565b60405180910390a15050565b600082601f830112610193578081fd5b813567ffffffffffffffff808211156101ae576101ae61035c565b604051601f8301601f19908116603f011681019082821181831017156101d6576101d661035c565b816040528381528660208588010111156101ee578485fd5b8360208701602083013792830160200193909352509392505050565b60006020828403121561021b578081fd5b813567ffffffffffffffff811115610231578182fd5b61023d84828501610183565b949350505050565b60008060408385031215610257578081fd5b823567ffffffffffffffff81111561026d578182fd5b61027985828601610183565b92505060208301356001600160a01b0381168114610295578182fd5b809150509250929050565b600081518084526102b881602086016020860161032c565b601f01601f19169290920160200192915050565b600082516102de81846020870161032c565b9190910192915050565b6020815260006102fb60208301846102a0565b9392505050565b60408152600061031560408301856102a0565b905060018060a01b03831660208301529392505050565b60005b8381101561034757818101518382015260200161032f565b83811115610356576000848401525b50505050565b634e487b7160e01b600052604160045260246000fdfea26469706673582212207a8682b1dcf0ac03826dfcad2ff681b59809b240ec484d3336f681093c07d96464736f6c63430008040033",
          "opcodes": "PUSH1 0x80 PUSH1 0x40 MSTORE CALLVALUE DUP1 ISZERO PUSH2 0x10 JUMPI PUSH1 0x0 DUP1 REVERT JUMPDEST POP PUSH1 0x1 DUP1 SLOAD PUSH1 0x1 PUSH1 0x1 PUSH1 0xA0 SHL SUB NOT AND CALLER OR SWAP1 SSTORE PUSH2 0x3A8 DUP1 PUSH2 0x32 PUSH1 0x0 CODECOPY PUSH1 0x0 RETURN INVALID PUSH1 0x80 PUSH1 0x40 MSTORE CALLVALUE DUP1 ISZERO PUSH2 0x10 JUMPI PUSH1 0x0 DUP1 REVERT JUMPDEST POP PUSH1 0x4 CALLDATASIZE LT PUSH2 0x4C JUMPI PUSH1 0x0 CALLDATALOAD PUSH1 0xE0 SHR DUP1 PUSH4 0x614D08F8 EQ PUSH2 0x51 JUMPI DUP1 PUSH4 0xA4B19D01 EQ PUSH2 0x93 JUMPI DUP1 PUSH4 0xB2BDFA7B EQ PUSH2 0xDF JUMPI DUP1 PUSH4 0xFC6F4C1B EQ PUSH2 0xF2 JUMPI JUMPDEST PUSH1 0x0 DUP1 REVERT JUMPDEST PUSH2 0x7D PUSH1 0x40 MLOAD DUP1 PUSH1 0x40 ADD PUSH1 0x40 MSTORE DUP1 PUSH1 0xD DUP2 MSTORE PUSH1 0x20 ADD PUSH13 0x26B4BC34B72932B9B7B63B32B9 PUSH1 0x99 SHL DUP2 MSTORE POP DUP2 JUMP JUMPDEST PUSH1 0x40 MLOAD PUSH2 0x8A SWAP2 SWAP1 PUSH2 0x2E8 JUMP JUMPDEST PUSH1 0x40 MLOAD DUP1 SWAP2 SUB SWAP1 RETURN JUMPDEST PUSH2 0xC7 PUSH2 0xA1 CALLDATASIZE PUSH1 0x4 PUSH2 0x20A JUMP JUMPDEST DUP1 MLOAD PUSH1 0x20 DUP2 DUP4 ADD DUP2 ADD DUP1 MLOAD PUSH1 0x0 DUP3 MSTORE SWAP3 DUP3 ADD SWAP2 SWAP1 SWAP4 ADD KECCAK256 SWAP2 MSTORE SLOAD PUSH1 0x1 PUSH1 0x1 PUSH1 0xA0 SHL SUB AND DUP2 JUMP JUMPDEST PUSH1 0x40 MLOAD PUSH1 0x1 PUSH1 0x1 PUSH1 0xA0 SHL SUB SWAP1 SWAP2 AND DUP2 MSTORE PUSH1 0x20 ADD PUSH2 0x8A JUMP JUMPDEST PUSH1 0x1 SLOAD PUSH2 0xC7 SWAP1 PUSH1 0x1 PUSH1 0x1 PUSH1 0xA0 SHL SUB AND DUP2 JUMP JUMPDEST PUSH2 0x105 PUSH2 0x100 CALLDATASIZE PUSH1 0x4 PUSH2 0x245 JUMP JUMPDEST PUSH2 0x107 JUMP JUMPDEST STOP JUMPDEST DUP1 PUSH1 0x0 DUP4 PUSH1 0x40 MLOAD PUSH2 0x118 SWAP2 SWAP1 PUSH2 0x2CC JUMP JUMPDEST SWAP1 DUP2 MSTORE PUSH1 0x40 MLOAD SWAP1 DUP2 SWAP1 SUB PUSH1 0x20 ADD DUP2 KECCAK256 DUP1 SLOAD PUSH1 0x1 PUSH1 0x1 PUSH1 0xA0 SHL SUB SWAP4 SWAP1 SWAP4 AND PUSH1 0x1 PUSH1 0x1 PUSH1 0xA0 SHL SUB NOT SWAP1 SWAP4 AND SWAP3 SWAP1 SWAP3 OR SWAP1 SWAP2 SSTORE PUSH32 0xF721AB865154F222F0053098FB6752276624E5310BCB2BB9269D205ECE331D5 SWAP1 PUSH2 0x177 SWAP1 DUP5 SWAP1 DUP5 SWAP1 PUSH2 0x302 JUMP JUMPDEST PUSH1 0x40 MLOAD DUP1 SWAP2 SUB SWAP1 LOG1 POP POP JUMP JUMPDEST PUSH1 0x0 DUP3 PUSH1 0x1F DUP4 ADD SLT PUSH2 0x193 JUMPI DUP1 DUP2 REVERT JUMPDEST DUP2 CALLDATALOAD PUSH8 0xFFFFFFFFFFFFFFFF DUP1 DUP3 GT ISZERO PUSH2 0x1AE JUMPI PUSH2 0x1AE PUSH2 0x35C JUMP JUMPDEST PUSH1 0x40 MLOAD PUSH1 0x1F DUP4 ADD PUSH1 0x1F NOT SWAP1 DUP2 AND PUSH1 0x3F ADD AND DUP2 ADD SWAP1 DUP3 DUP3 GT DUP2 DUP4 LT OR ISZERO PUSH2 0x1D6 JUMPI PUSH2 0x1D6 PUSH2 0x35C JUMP JUMPDEST DUP2 PUSH1 0x40 MSTORE DUP4 DUP2 MSTORE DUP7 PUSH1 0x20 DUP6 DUP9 ADD ADD GT ISZERO PUSH2 0x1EE JUMPI DUP5 DUP6 REVERT JUMPDEST DUP4 PUSH1 0x20 DUP8 ADD PUSH1 0x20 DUP4 ADD CALLDATACOPY SWAP3 DUP4 ADD PUSH1 0x20 ADD SWAP4 SWAP1 SWAP4 MSTORE POP SWAP4 SWAP3 POP POP POP JUMP JUMPDEST PUSH1 0x0 PUSH1 0x20 DUP3 DUP5 SUB SLT ISZERO PUSH2 0x21B JUMPI DUP1 DUP2 REVERT JUMPDEST DUP2 CALLDATALOAD PUSH8 0xFFFFFFFFFFFFFFFF DUP2 GT ISZERO PUSH2 0x231 JUMPI DUP2 DUP3 REVERT JUMPDEST PUSH2 0x23D DUP5 DUP3 DUP6 ADD PUSH2 0x183 JUMP JUMPDEST SWAP5 SWAP4 POP POP POP POP JUMP JUMPDEST PUSH1 0x0 DUP1 PUSH1 0x40 DUP4 DUP6 SUB SLT ISZERO PUSH2 0x257 JUMPI DUP1 DUP2 REVERT JUMPDEST DUP3 CALLDATALOAD PUSH8 0xFFFFFFFFFFFFFFFF DUP2 GT ISZERO PUSH2 0x26D JUMPI DUP2 DUP3 REVERT JUMPDEST PUSH2 0x279 DUP6 DUP3 DUP7 ADD PUSH2 0x183 JUMP JUMPDEST SWAP3 POP POP PUSH1 0x20 DUP4 ADD CALLDATALOAD PUSH1 0x1 PUSH1 0x1 PUSH1 0xA0 SHL SUB DUP2 AND DUP2 EQ PUSH2 0x295 JUMPI DUP2 DUP3 REVERT JUMPDEST DUP1 SWAP2 POP POP SWAP3 POP SWAP3 SWAP1 POP JUMP JUMPDEST PUSH1 0x0 DUP2 MLOAD DUP1 DUP5 MSTORE PUSH2 0x2B8 DUP2 PUSH1 0x20 DUP7 ADD PUSH1 0x20 DUP7 ADD PUSH2 0x32C JUMP JUMPDEST PUSH1 0x1F ADD PUSH1 0x1F NOT AND SWAP3 SWAP1 SWAP3 ADD PUSH1 0x20 ADD SWAP3 SWAP2 POP POP JUMP JUMPDEST PUSH1 0x0 DUP3 MLOAD PUSH2 0x2DE DUP2 DUP5 PUSH1 0x20 DUP8 ADD PUSH2 0x32C JUMP JUMPDEST SWAP2 SWAP1 SWAP2 ADD SWAP3 SWAP2 POP POP JUMP JUMPDEST PUSH1 0x20 DUP2 MSTORE PUSH1 0x0 PUSH2 0x2FB PUSH1 0x20 DUP4 ADD DUP5 PUSH2 0x2A0 JUMP JUMPDEST SWAP4 SWAP3 POP POP POP JUMP JUMPDEST PUSH1 0x40 DUP2 MSTORE PUSH1 0x0 PUSH2 0x315 PUSH1 0x40 DUP4 ADD DUP6 PUSH2 0x2A0 JUMP JUMPDEST SWAP1 POP PUSH1 0x1 DUP1 PUSH1 0xA0 SHL SUB DUP4 AND PUSH1 0x20 DUP4 ADD MSTORE SWAP4 SWAP3 POP POP POP JUMP JUMPDEST PUSH1 0x0 JUMPDEST DUP4 DUP2 LT ISZERO PUSH2 0x347 JUMPI DUP2 DUP2 ADD MLOAD DUP4 DUP3 ADD MSTORE PUSH1 0x20 ADD PUSH2 0x32F JUMP JUMPDEST DUP4 DUP2 GT ISZERO PUSH2 0x356 JUMPI PUSH1 0x0 DUP5 DUP5 ADD MSTORE JUMPDEST POP POP POP POP JUMP JUMPDEST PUSH4 0x4E487B71 PUSH1 0xE0 SHL PUSH1 0x0 MSTORE PUSH1 0x41 PUSH1 0x4 MSTORE PUSH1 0x24 PUSH1 0x0 REVERT INVALID LOG2 PUSH5 0x6970667358 0x22 SLT KECCAK256 PUSH27 0x8682B1DCF0AC03826DFCAD2FF681B59809B240EC484D3336F68109 EXTCODECOPY SMOD 0xD9 PUSH5 0x64736F6C63 NUMBER STOP ADDMOD DIV STOP CALLER "
        },
        "methodIdentifiers": {
          "CONTRACT_NAME()": "614d08f8",
          "_owner()": "b2bdfa7b",
          "addressCache(string)": "a4b19d01",
          "updateCache(string,address)": "fc6f4c1b"
        }
      }
    }
  }
}