{
  "contracts/XSynProtocol.sol": {
    "XSynProtocol": {
      "abi": [
        {
          "inputs": [],
          "stateMutability": "nonpayable",
          "type": "constructor"
        },
        {
          "anonymous": false,
          "inputs": [
            {
              "indexed": false,
              "internalType": "string",
              "name": "name",
              "type": "string"
            },
            {
              "indexed": false,
              "internalType": "address",
              "name": "destination",
              "type": "address"
            }
          ],
          "name": "CacheUpdated",
          "type": "event"
        },
        {
          "anonymous": false,
          "inputs": [
            {
              "indexed": false,
              "internalType": "uint256",
              "name": "amount",
              "type": "uint256"
            }
          ],
          "name": "MinimumDepositAmountUpdated",
          "type": "event"
        },
        {
          "inputs": [],
          "name": "CONTRACTNAME",
          "outputs": [
            {
              "internalType": "string",
              "name": "",
              "type": "string"
            }
          ],
          "stateMutability": "view",
          "type": "function"
        },
        {
          "inputs": [],
          "name": "CONTRACT_NAME",
          "outputs": [
            {
              "internalType": "string",
              "name": "",
              "type": "string"
            }
          ],
          "stateMutability": "view",
          "type": "function"
        },
        {
          "inputs": [],
          "name": "_owner",
          "outputs": [
            {
              "internalType": "address",
              "name": "",
              "type": "address"
            }
          ],
          "stateMutability": "view",
          "type": "function"
        },
        {
          "inputs": [
            {
              "internalType": "string",
              "name": "",
              "type": "string"
            }
          ],
          "name": "addressCache",
          "outputs": [
            {
              "internalType": "address",
              "name": "",
              "type": "address"
            }
          ],
          "stateMutability": "view",
          "type": "function"
        },
        {
          "inputs": [],
          "name": "contractOwner",
          "outputs": [
            {
              "internalType": "address",
              "name": "",
              "type": "address"
            }
          ],
          "stateMutability": "view",
          "type": "function"
        },
        {
          "inputs": [
            {
              "internalType": "address",
              "name": "",
              "type": "address"
            }
          ],
          "name": "deposits",
          "outputs": [
            {
              "internalType": "address payable",
              "name": "user",
              "type": "address"
            },
            {
              "internalType": "uint256",
              "name": "xdcDeposit",
              "type": "uint256"
            },
            {
              "internalType": "uint256",
              "name": "pliDeposit",
              "type": "uint256"
            },
            {
              "internalType": "enum Constants.TokenType",
              "name": "tok",
              "type": "uint8"
            }
          ],
          "stateMutability": "view",
          "type": "function"
        },
        {
          "inputs": [],
          "name": "minimumPLIDepositAmount",
          "outputs": [
            {
              "internalType": "uint256",
              "name": "",
              "type": "uint256"
            }
          ],
          "stateMutability": "view",
          "type": "function"
        },
        {
          "inputs": [],
          "name": "minimumXDCDepositAmount",
          "outputs": [
            {
              "internalType": "uint256",
              "name": "",
              "type": "uint256"
            }
          ],
          "stateMutability": "view",
          "type": "function"
        },
        {
          "inputs": [
            {
              "internalType": "address",
              "name": "",
              "type": "address"
            }
          ],
          "name": "mintr",
          "outputs": [
            {
              "internalType": "uint256",
              "name": "",
              "type": "uint256"
            }
          ],
          "stateMutability": "view",
          "type": "function"
        },
        {
          "inputs": [
            {
              "internalType": "uint256",
              "name": "_pliVal",
              "type": "uint256"
            }
          ],
          "name": "mintxdUSDForPLI",
          "outputs": [
            {
              "internalType": "uint256",
              "name": "",
              "type": "uint256"
            }
          ],
          "stateMutability": "payable",
          "type": "function"
        },
        {
          "inputs": [],
          "name": "mintxdUSDForXDC",
          "outputs": [
            {
              "internalType": "uint256",
              "name": "",
              "type": "uint256"
            }
          ],
          "stateMutability": "payable",
          "type": "function"
        },
        {
          "inputs": [
            {
              "internalType": "uint256",
              "name": "_minDeposit",
              "type": "uint256"
            }
          ],
          "name": "setMinDepositForPLI",
          "outputs": [],
          "stateMutability": "nonpayable",
          "type": "function"
        },
        {
          "inputs": [
            {
              "internalType": "uint256",
              "name": "_minDeposit",
              "type": "uint256"
            }
          ],
          "name": "setMinDepositForXDC",
          "outputs": [],
          "stateMutability": "nonpayable",
          "type": "function"
        },
        {
          "inputs": [
            {
              "internalType": "string",
              "name": "_name",
              "type": "string"
            },
            {
              "internalType": "address",
              "name": "_destination",
              "type": "address"
            }
          ],
          "name": "updateCache",
          "outputs": [],
          "stateMutability": "nonpayable",
          "type": "function"
        },
        {
          "stateMutability": "payable",
          "type": "receive"
        }
      ],
      "evm": {
        "bytecode": {
          "linkReferences": {
            "contracts/utils/SafeDecimalMath.sol": {
              "SafeDecimalMath": [
                {
                  "length": 20,
                  "start": 18
                },
                {
                  "length": 20,
                  "start": 147
                }
              ]
            }
          },
          "object": "60806040819052630241ebdb60e61b815273__$62ad3b859263eea2f18e8dce157c4af92c$__9063907af6c09060849060209060048186803b1580156200004557600080fd5b505af41580156200005a573d6000803e3d6000fd5b505050506040513d601f19601f8201168201806040525081019062000080919062000158565b6200008e906107d062000171565b60045573__$62ad3b859263eea2f18e8dce157c4af92c$__63907af6c06040518163ffffffff1660e01b815260040160206040518083038186803b158015620000d657600080fd5b505af4158015620000eb573d6000803e3d6000fd5b505050506040513d601f19601f8201168201806040525081019062000111919062000158565b6200011f906102bc62000171565b6005553480156200012f57600080fd5b5060018054336001600160a01b031991821681179092556003805490911690911790556200019d565b6000602082840312156200016a578081fd5b5051919050565b60008160001904831182151516156200019857634e487b7160e01b81526011600452602481fd5b500290565b61129d80620001ad6000396000f3fe6080604052600436106100e15760003560e01c8063b2bdfa7b1161007f578063e52346d011610059578063e52346d014610275578063f187574414610295578063fc6f4c1b146102cd578063fc7e286d146102ed57600080fd5b8063b2bdfa7b14610208578063ce606ee014610228578063d6ea7b3b1461024857600080fd5b80635f230a61116100bb5780635f230a611461013f578063614d08f81461016157806383e10787146101a7578063a4b19d01146101af57600080fd5b8063056c5aa9146100ed5780633b6fba1a146101165780635afdab9f1461012c57600080fd5b366100e857005b600080fd5b3480156100f957600080fd5b5061010360045481565b6040519081526020015b60405180910390f35b34801561012257600080fd5b5061010360055481565b61010361013a366004610e88565b61034c565b34801561014b57600080fd5b5061015f61015a366004610e88565b6104a5565b005b34801561016d57600080fd5b5061019a6040518060400160405280600d81526020016c26b4bc34b72932b9b7b63b32b960991b81525081565b60405161010d9190610f6c565b6101036104e1565b3480156101bb57600080fd5b506101f06101ca366004610e09565b80516020818301810180516000825292820191909301209152546001600160a01b031681565b6040516001600160a01b03909116815260200161010d565b34801561021457600080fd5b506001546101f0906001600160a01b031681565b34801561023457600080fd5b506003546101f0906001600160a01b031681565b34801561025457600080fd5b50610103610263366004610db7565b60026020526000908152604090205481565b34801561028157600080fd5b5061015f610290366004610e88565b61062f565b3480156102a157600080fd5b5061019a6040518060400160405280600c81526020016b1614de5b941c9bdd1bd8dbdb60a21b81525081565b3480156102d957600080fd5b5061015f6102e8366004610e3c565b610664565b3480156102f957600080fd5b5061033c610308366004610db7565b60066020526000908152604090208054600182015460028301546003909301546001600160a01b0390921692909160ff1684565b60405161010d9493929190610f21565b60006005548210156103795760405162461bcd60e51b815260040161037090610fa9565b60405180910390fd5b60006103836106e0565b6001600160a01b031663d7a356be6040518163ffffffff1660e01b81526004016103ac90611039565b602060405180830381600087803b1580156103c657600080fd5b505af11580156103da573d6000803e3d6000fd5b505050506040513d601f19601f820116820180604052508101906103fe9190610df1565b9050600061049161040d6106e0565b6001600160a01b031663dd953fb0846040518263ffffffff1660e01b815260040161043a91815260200190565b60206040518083038186803b15801561045257600080fd5b505afa158015610466573d6000803e3d6000fd5b505050506040513d601f19601f8201168201806040525081019061048a9190610df1565b8590610714565b905061049d818561073f565b949350505050565b60058190556040518181527fa39eacd162ee82c70b2b030a1bc8fe89adcccc61122fad4821a8772dbcc54267906020015b60405180910390a150565b60006004543410156105055760405162461bcd60e51b815260040161037090611077565b600061050f6106e0565b6001600160a01b031663d7a356be6040518163ffffffff1660e01b815260040161053890610ffb565b602060405180830381600087803b15801561055257600080fd5b505af1158015610566573d6000803e3d6000fd5b505050506040513d601f19601f8201168201806040525081019061058a9190610df1565b9050600061061d6105996106e0565b6001600160a01b031663dd953fb0846040518263ffffffff1660e01b81526004016105c691815260200190565b60206040518083038186803b1580156105de57600080fd5b505afa1580156105f2573d6000803e3d6000fd5b505050506040513d601f19601f820116820180604052508101906106169190610df1565b3490610714565b905061062881610944565b9250505090565b60048190556040518181527fa39eacd162ee82c70b2b030a1bc8fe89adcccc61122fad4821a8772dbcc54267906020016104d6565b806000836040516106759190610ecc565b90815260405190819003602001812080546001600160a01b03939093166001600160a01b0319909316929092179091557f0f721ab865154f222f0053098fb6752276624e5310bcb2bb9269d205ece331d5906106d49084908490610f7f565b60405180910390a15050565b600061070f6040518060400160405280600c81526020016b45584348414e47455241544560a01b815250610b9b565b905090565b60006107226012600a611144565b61072c8484610c0e565b61073691906110e1565b90505b92915050565b60006005548210156107635760405162461bcd60e51b815260040161037090610fa9565b336000908152600660209081526040808320815160808101835281546001600160a01b0316815260018083015494820194909452600282015492810192909252600381015491929091606084019160ff909116908111156107d457634e487b7160e01b600052602160045260246000fd5b60018111156107f357634e487b7160e01b600052602160045260246000fd5b905250604081015190915060009061080b9085610c8d565b6040805160808101825284516001600160a01b039081168252602080870151818401908152838501868152600160608601818152336000908152600690955296909320855181546001600160a01b031916951694909417845590518383015551600283015592516003820180549596509294919390929160ff19169083818111156108a657634e487b7160e01b600052602160045260246000fd5b02179055509050506108b6610cec565b6040516340c10f1960e01b8152336004820152602481018790526001600160a01b0391909116906340c10f1990604401602060405180830381600087803b15801561090057600080fd5b505af1158015610914573d6000803e3d6000fd5b505050506040513d601f19601f820116820180604052508101906109389190610dd1565b50600195945050505050565b60006004543410156109685760405162461bcd60e51b815260040161037090611077565b336000908152600660209081526040808320815160808101835281546001600160a01b0316815260018083015494820194909452600282015492810192909252600381015491929091606084019160ff909116908111156109d957634e487b7160e01b600052602160045260246000fd5b60018111156109f857634e487b7160e01b600052602160045260246000fd5b9052506020810151909150600090610a109034610c8d565b9050604051806080016040528083600001516001600160a01b031681526020018281526020018360400151815260200160006001811115610a6157634e487b7160e01b600052602160045260246000fd5b6001811115610a8057634e487b7160e01b600052602160045260246000fd5b905233600090815260066020908152604091829020835181546001600160a01b0319166001600160a01b0390911617815590830151600180830191909155918301516002820155606083015160038201805492939192909160ff19909116908381811115610afe57634e487b7160e01b600052602160045260246000fd5b0217905550905050610b0e610cec565b6040516340c10f1960e01b8152336004820152602481018690526001600160a01b0391909116906340c10f1990604401602060405180830381600087803b158015610b5857600080fd5b505af1158015610b6c573d6000803e3d6000fd5b505050506040513d601f19601f82011682018060405250810190610b909190610dd1565b506001949350505050565b600080600083604051610bae9190610ecc565b90815260405160209181900382018120546001600160a01b0316925082151591610bda91869101610ee8565b60405160208183030381529060405290610c075760405162461bcd60e51b81526004016103709190610f6c565b5092915050565b600082610c1d57506000610739565b6000610c2983856111ec565b905082610c3685836110e1565b146107365760405162461bcd60e51b815260206004820152602160248201527f536166654d6174683a206d756c7469706c69636174696f6e206f766572666c6f6044820152607760f81b6064820152608401610370565b600080610c9a83856110c9565b9050838110156107365760405162461bcd60e51b815260206004820152601b60248201527f536166654d6174683a206164646974696f6e206f766572666c6f7700000000006044820152606401610370565b600061070f6040518060400160405280600581526020016416111554d160da1b815250610b9b565b80356001600160a01b0381168114610d2b57600080fd5b919050565b600082601f830112610d40578081fd5b813567ffffffffffffffff80821115610d5b57610d5b611251565b604051601f8301601f19908116603f01168101908282118183101715610d8357610d83611251565b81604052838152866020858801011115610d9b578485fd5b8360208701602083013792830160200193909352509392505050565b600060208284031215610dc8578081fd5b61073682610d14565b600060208284031215610de2578081fd5b81518015158114610736578182fd5b600060208284031215610e02578081fd5b5051919050565b600060208284031215610e1a578081fd5b813567ffffffffffffffff811115610e30578182fd5b61049d84828501610d30565b60008060408385031215610e4e578081fd5b823567ffffffffffffffff811115610e64578182fd5b610e7085828601610d30565b925050610e7f60208401610d14565b90509250929050565b600060208284031215610e99578081fd5b5035919050565b60008151808452610eb881602086016020860161120b565b601f01601f19169290920160200192915050565b60008251610ede81846020870161120b565b9190910192915050565b70026b4b9b9b4b7339030b2323932b9b99d1607d1b815260008251610f1481601185016020870161120b565b9190910160110192915050565b6001600160a01b038516815260208101849052604081018390526080810160028310610f5d57634e487b7160e01b600052602160045260246000fd5b82606083015295945050505050565b6020815260006107366020830184610ea0565b604081526000610f926040830185610ea0565b905060018060a01b03831660208301529392505050565b60208082526032908201527f504c4920616d6f756e742053686f756c64206265206d696e696d756d504c4944604082015271195c1bdcda5d105b5bdd5b9d081b1a5b5a5d60721b606082015260800190565b60408152600360408201526258444360e81b60608201526080602082015260006107396080830160048152631554d11560e21b602082015260400190565b604081526003604082015262504c4960e81b60608201526080602082015260006107396080830160048152631554d11560e21b602082015260400190565b60208082526032908201527f58444320616d6f756e742053686f756c64206265206d696e696d756d58444344604082015271195c1bdcda5d105b5bdd5b9d081b1a5b5a5d60721b606082015260800190565b600082198211156110dc576110dc61123b565b500190565b6000826110fc57634e487b7160e01b81526012600452602481fd5b500490565b600181815b8085111561113c5781600019048211156111225761112261123b565b8085161561112f57918102915b93841c9390800290611106565b509250929050565b6000610736838360008261115a57506001610739565b8161116757506000610739565b816001811461117d5760028114611187576111a3565b6001915050610739565b60ff8411156111985761119861123b565b50506001821b610739565b5060208310610133831016604e8410600b84101617156111c6575081810a610739565b6111d08383611101565b80600019048211156111e4576111e461123b565b029392505050565b60008160001904831182151516156112065761120661123b565b500290565b60005b8381101561122657818101518382015260200161120e565b83811115611235576000848401525b50505050565b634e487b7160e01b600052601160045260246000fd5b634e487b7160e01b600052604160045260246000fdfea26469706673582212204cd566e1aeb9fc022722d476074196db13cad094c538e4cda4ecac2b72ee41f764736f6c63430008040033",
          "opcodes": "PUSH1 0x80 PUSH1 0x40 DUP2 SWAP1 MSTORE PUSH4 0x241EBDB PUSH1 0xE6 SHL DUP2 MSTORE PUSH20 0x0 SWAP1 PUSH4 0x907AF6C0 SWAP1 PUSH1 0x84 SWAP1 PUSH1 0x20 SWAP1 PUSH1 0x4 DUP2 DUP7 DUP1 EXTCODESIZE ISZERO DUP1 ISZERO PUSH3 0x45 JUMPI PUSH1 0x0 DUP1 REVERT JUMPDEST POP GAS DELEGATECALL ISZERO DUP1 ISZERO PUSH3 0x5A JUMPI RETURNDATASIZE PUSH1 0x0 DUP1 RETURNDATACOPY RETURNDATASIZE PUSH1 0x0 REVERT JUMPDEST POP POP POP POP PUSH1 0x40 MLOAD RETURNDATASIZE PUSH1 0x1F NOT PUSH1 0x1F DUP3 ADD AND DUP3 ADD DUP1 PUSH1 0x40 MSTORE POP DUP2 ADD SWAP1 PUSH3 0x80 SWAP2 SWAP1 PUSH3 0x158 JUMP JUMPDEST PUSH3 0x8E SWAP1 PUSH2 0x7D0 PUSH3 0x171 JUMP JUMPDEST PUSH1 0x4 SSTORE PUSH20 0x0 PUSH4 0x907AF6C0 PUSH1 0x40 MLOAD DUP2 PUSH4 0xFFFFFFFF AND PUSH1 0xE0 SHL DUP2 MSTORE PUSH1 0x4 ADD PUSH1 0x20 PUSH1 0x40 MLOAD DUP1 DUP4 SUB DUP2 DUP7 DUP1 EXTCODESIZE ISZERO DUP1 ISZERO PUSH3 0xD6 JUMPI PUSH1 0x0 DUP1 REVERT JUMPDEST POP GAS DELEGATECALL ISZERO DUP1 ISZERO PUSH3 0xEB JUMPI RETURNDATASIZE PUSH1 0x0 DUP1 RETURNDATACOPY RETURNDATASIZE PUSH1 0x0 REVERT JUMPDEST POP POP POP POP PUSH1 0x40 MLOAD RETURNDATASIZE PUSH1 0x1F NOT PUSH1 0x1F DUP3 ADD AND DUP3 ADD DUP1 PUSH1 0x40 MSTORE POP DUP2 ADD SWAP1 PUSH3 0x111 SWAP2 SWAP1 PUSH3 0x158 JUMP JUMPDEST PUSH3 0x11F SWAP1 PUSH2 0x2BC PUSH3 0x171 JUMP JUMPDEST PUSH1 0x5 SSTORE CALLVALUE DUP1 ISZERO PUSH3 0x12F JUMPI PUSH1 0x0 DUP1 REVERT JUMPDEST POP PUSH1 0x1 DUP1 SLOAD CALLER PUSH1 0x1 PUSH1 0x1 PUSH1 0xA0 SHL SUB NOT SWAP2 DUP3 AND DUP2 OR SWAP1 SWAP3 SSTORE PUSH1 0x3 DUP1 SLOAD SWAP1 SWAP2 AND SWAP1 SWAP2 OR SWAP1 SSTORE PUSH3 0x19D JUMP JUMPDEST PUSH1 0x0 PUSH1 0x20 DUP3 DUP5 SUB SLT ISZERO PUSH3 0x16A JUMPI DUP1 DUP2 REVERT JUMPDEST POP MLOAD SWAP2 SWAP1 POP JUMP JUMPDEST PUSH1 0x0 DUP2 PUSH1 0x0 NOT DIV DUP4 GT DUP3 ISZERO ISZERO AND ISZERO PUSH3 0x198 JUMPI PUSH4 0x4E487B71 PUSH1 0xE0 SHL DUP2 MSTORE PUSH1 0x11 PUSH1 0x4 MSTORE PUSH1 0x24 DUP2 REVERT JUMPDEST POP MUL SWAP1 JUMP JUMPDEST PUSH2 0x129D DUP1 PUSH3 0x1AD PUSH1 0x0 CODECOPY PUSH1 0x0 RETURN INVALID PUSH1 0x80 PUSH1 0x40 MSTORE PUSH1 0x4 CALLDATASIZE LT PUSH2 0xE1 JUMPI PUSH1 0x0 CALLDATALOAD PUSH1 0xE0 SHR DUP1 PUSH4 0xB2BDFA7B GT PUSH2 0x7F JUMPI DUP1 PUSH4 0xE52346D0 GT PUSH2 0x59 JUMPI DUP1 PUSH4 0xE52346D0 EQ PUSH2 0x275 JUMPI DUP1 PUSH4 0xF1875744 EQ PUSH2 0x295 JUMPI DUP1 PUSH4 0xFC6F4C1B EQ PUSH2 0x2CD JUMPI DUP1 PUSH4 0xFC7E286D EQ PUSH2 0x2ED JUMPI PUSH1 0x0 DUP1 REVERT JUMPDEST DUP1 PUSH4 0xB2BDFA7B EQ PUSH2 0x208 JUMPI DUP1 PUSH4 0xCE606EE0 EQ PUSH2 0x228 JUMPI DUP1 PUSH4 0xD6EA7B3B EQ PUSH2 0x248 JUMPI PUSH1 0x0 DUP1 REVERT JUMPDEST DUP1 PUSH4 0x5F230A61 GT PUSH2 0xBB JUMPI DUP1 PUSH4 0x5F230A61 EQ PUSH2 0x13F JUMPI DUP1 PUSH4 0x614D08F8 EQ PUSH2 0x161 JUMPI DUP1 PUSH4 0x83E10787 EQ PUSH2 0x1A7 JUMPI DUP1 PUSH4 0xA4B19D01 EQ PUSH2 0x1AF JUMPI PUSH1 0x0 DUP1 REVERT JUMPDEST DUP1 PUSH4 0x56C5AA9 EQ PUSH2 0xED JUMPI DUP1 PUSH4 0x3B6FBA1A EQ PUSH2 0x116 JUMPI DUP1 PUSH4 0x5AFDAB9F EQ PUSH2 0x12C JUMPI PUSH1 0x0 DUP1 REVERT JUMPDEST CALLDATASIZE PUSH2 0xE8 JUMPI STOP JUMPDEST PUSH1 0x0 DUP1 REVERT JUMPDEST CALLVALUE DUP1 ISZERO PUSH2 0xF9 JUMPI PUSH1 0x0 DUP1 REVERT JUMPDEST POP PUSH2 0x103 PUSH1 0x4 SLOAD DUP2 JUMP JUMPDEST PUSH1 0x40 MLOAD SWAP1 DUP2 MSTORE PUSH1 0x20 ADD JUMPDEST PUSH1 0x40 MLOAD DUP1 SWAP2 SUB SWAP1 RETURN JUMPDEST CALLVALUE DUP1 ISZERO PUSH2 0x122 JUMPI PUSH1 0x0 DUP1 REVERT JUMPDEST POP PUSH2 0x103 PUSH1 0x5 SLOAD DUP2 JUMP JUMPDEST PUSH2 0x103 PUSH2 0x13A CALLDATASIZE PUSH1 0x4 PUSH2 0xE88 JUMP JUMPDEST PUSH2 0x34C JUMP JUMPDEST CALLVALUE DUP1 ISZERO PUSH2 0x14B JUMPI PUSH1 0x0 DUP1 REVERT JUMPDEST POP PUSH2 0x15F PUSH2 0x15A CALLDATASIZE PUSH1 0x4 PUSH2 0xE88 JUMP JUMPDEST PUSH2 0x4A5 JUMP JUMPDEST STOP JUMPDEST CALLVALUE DUP1 ISZERO PUSH2 0x16D JUMPI PUSH1 0x0 DUP1 REVERT JUMPDEST POP PUSH2 0x19A PUSH1 0x40 MLOAD DUP1 PUSH1 0x40 ADD PUSH1 0x40 MSTORE DUP1 PUSH1 0xD DUP2 MSTORE PUSH1 0x20 ADD PUSH13 0x26B4BC34B72932B9B7B63B32B9 PUSH1 0x99 SHL DUP2 MSTORE POP DUP2 JUMP JUMPDEST PUSH1 0x40 MLOAD PUSH2 0x10D SWAP2 SWAP1 PUSH2 0xF6C JUMP JUMPDEST PUSH2 0x103 PUSH2 0x4E1 JUMP JUMPDEST CALLVALUE DUP1 ISZERO PUSH2 0x1BB JUMPI PUSH1 0x0 DUP1 REVERT JUMPDEST POP PUSH2 0x1F0 PUSH2 0x1CA CALLDATASIZE PUSH1 0x4 PUSH2 0xE09 JUMP JUMPDEST DUP1 MLOAD PUSH1 0x20 DUP2 DUP4 ADD DUP2 ADD DUP1 MLOAD PUSH1 0x0 DUP3 MSTORE SWAP3 DUP3 ADD SWAP2 SWAP1 SWAP4 ADD KECCAK256 SWAP2 MSTORE SLOAD PUSH1 0x1 PUSH1 0x1 PUSH1 0xA0 SHL SUB AND DUP2 JUMP JUMPDEST PUSH1 0x40 MLOAD PUSH1 0x1 PUSH1 0x1 PUSH1 0xA0 SHL SUB SWAP1 SWAP2 AND DUP2 MSTORE PUSH1 0x20 ADD PUSH2 0x10D JUMP JUMPDEST CALLVALUE DUP1 ISZERO PUSH2 0x214 JUMPI PUSH1 0x0 DUP1 REVERT JUMPDEST POP PUSH1 0x1 SLOAD PUSH2 0x1F0 SWAP1 PUSH1 0x1 PUSH1 0x1 PUSH1 0xA0 SHL SUB AND DUP2 JUMP JUMPDEST CALLVALUE DUP1 ISZERO PUSH2 0x234 JUMPI PUSH1 0x0 DUP1 REVERT JUMPDEST POP PUSH1 0x3 SLOAD PUSH2 0x1F0 SWAP1 PUSH1 0x1 PUSH1 0x1 PUSH1 0xA0 SHL SUB AND DUP2 JUMP JUMPDEST CALLVALUE DUP1 ISZERO PUSH2 0x254 JUMPI PUSH1 0x0 DUP1 REVERT JUMPDEST POP PUSH2 0x103 PUSH2 0x263 CALLDATASIZE PUSH1 0x4 PUSH2 0xDB7 JUMP JUMPDEST PUSH1 0x2 PUSH1 0x20 MSTORE PUSH1 0x0 SWAP1 DUP2 MSTORE PUSH1 0x40 SWAP1 KECCAK256 SLOAD DUP2 JUMP JUMPDEST CALLVALUE DUP1 ISZERO PUSH2 0x281 JUMPI PUSH1 0x0 DUP1 REVERT JUMPDEST POP PUSH2 0x15F PUSH2 0x290 CALLDATASIZE PUSH1 0x4 PUSH2 0xE88 JUMP JUMPDEST PUSH2 0x62F JUMP JUMPDEST CALLVALUE DUP1 ISZERO PUSH2 0x2A1 JUMPI PUSH1 0x0 DUP1 REVERT JUMPDEST POP PUSH2 0x19A PUSH1 0x40 MLOAD DUP1 PUSH1 0x40 ADD PUSH1 0x40 MSTORE DUP1 PUSH1 0xC DUP2 MSTORE PUSH1 0x20 ADD PUSH12 0x1614DE5B941C9BDD1BD8DBDB PUSH1 0xA2 SHL DUP2 MSTORE POP DUP2 JUMP JUMPDEST CALLVALUE DUP1 ISZERO PUSH2 0x2D9 JUMPI PUSH1 0x0 DUP1 REVERT JUMPDEST POP PUSH2 0x15F PUSH2 0x2E8 CALLDATASIZE PUSH1 0x4 PUSH2 0xE3C JUMP JUMPDEST PUSH2 0x664 JUMP JUMPDEST CALLVALUE DUP1 ISZERO PUSH2 0x2F9 JUMPI PUSH1 0x0 DUP1 REVERT JUMPDEST POP PUSH2 0x33C PUSH2 0x308 CALLDATASIZE PUSH1 0x4 PUSH2 0xDB7 JUMP JUMPDEST PUSH1 0x6 PUSH1 0x20 MSTORE PUSH1 0x0 SWAP1 DUP2 MSTORE PUSH1 0x40 SWAP1 KECCAK256 DUP1 SLOAD PUSH1 0x1 DUP3 ADD SLOAD PUSH1 0x2 DUP4 ADD SLOAD PUSH1 0x3 SWAP1 SWAP4 ADD SLOAD PUSH1 0x1 PUSH1 0x1 PUSH1 0xA0 SHL SUB SWAP1 SWAP3 AND SWAP3 SWAP1 SWAP2 PUSH1 0xFF AND DUP5 JUMP JUMPDEST PUSH1 0x40 MLOAD PUSH2 0x10D SWAP5 SWAP4 SWAP3 SWAP2 SWAP1 PUSH2 0xF21 JUMP JUMPDEST PUSH1 0x0 PUSH1 0x5 SLOAD DUP3 LT ISZERO PUSH2 0x379 JUMPI PUSH1 0x40 MLOAD PUSH3 0x461BCD PUSH1 0xE5 SHL DUP2 MSTORE PUSH1 0x4 ADD PUSH2 0x370 SWAP1 PUSH2 0xFA9 JUMP JUMPDEST PUSH1 0x40 MLOAD DUP1 SWAP2 SUB SWAP1 REVERT JUMPDEST PUSH1 0x0 PUSH2 0x383 PUSH2 0x6E0 JUMP JUMPDEST PUSH1 0x1 PUSH1 0x1 PUSH1 0xA0 SHL SUB AND PUSH4 0xD7A356BE PUSH1 0x40 MLOAD DUP2 PUSH4 0xFFFFFFFF AND PUSH1 0xE0 SHL DUP2 MSTORE PUSH1 0x4 ADD PUSH2 0x3AC SWAP1 PUSH2 0x1039 JUMP JUMPDEST PUSH1 0x20 PUSH1 0x40 MLOAD DUP1 DUP4 SUB DUP2 PUSH1 0x0 DUP8 DUP1 EXTCODESIZE ISZERO DUP1 ISZERO PUSH2 0x3C6 JUMPI PUSH1 0x0 DUP1 REVERT JUMPDEST POP GAS CALL ISZERO DUP1 ISZERO PUSH2 0x3DA JUMPI RETURNDATASIZE PUSH1 0x0 DUP1 RETURNDATACOPY RETURNDATASIZE PUSH1 0x0 REVERT JUMPDEST POP POP POP POP PUSH1 0x40 MLOAD RETURNDATASIZE PUSH1 0x1F NOT PUSH1 0x1F DUP3 ADD AND DUP3 ADD DUP1 PUSH1 0x40 MSTORE POP DUP2 ADD SWAP1 PUSH2 0x3FE SWAP2 SWAP1 PUSH2 0xDF1 JUMP JUMPDEST SWAP1 POP PUSH1 0x0 PUSH2 0x491 PUSH2 0x40D PUSH2 0x6E0 JUMP JUMPDEST PUSH1 0x1 PUSH1 0x1 PUSH1 0xA0 SHL SUB AND PUSH4 0xDD953FB0 DUP5 PUSH1 0x40 MLOAD DUP3 PUSH4 0xFFFFFFFF AND PUSH1 0xE0 SHL DUP2 MSTORE PUSH1 0x4 ADD PUSH2 0x43A SWAP2 DUP2 MSTORE PUSH1 0x20 ADD SWAP1 JUMP JUMPDEST PUSH1 0x20 PUSH1 0x40 MLOAD DUP1 DUP4 SUB DUP2 DUP7 DUP1 EXTCODESIZE ISZERO DUP1 ISZERO PUSH2 0x452 JUMPI PUSH1 0x0 DUP1 REVERT JUMPDEST POP GAS STATICCALL ISZERO DUP1 ISZERO PUSH2 0x466 JUMPI RETURNDATASIZE PUSH1 0x0 DUP1 RETURNDATACOPY RETURNDATASIZE PUSH1 0x0 REVERT JUMPDEST POP POP POP POP PUSH1 0x40 MLOAD RETURNDATASIZE PUSH1 0x1F NOT PUSH1 0x1F DUP3 ADD AND DUP3 ADD DUP1 PUSH1 0x40 MSTORE POP DUP2 ADD SWAP1 PUSH2 0x48A SWAP2 SWAP1 PUSH2 0xDF1 JUMP JUMPDEST DUP6 SWAP1 PUSH2 0x714 JUMP JUMPDEST SWAP1 POP PUSH2 0x49D DUP2 DUP6 PUSH2 0x73F JUMP JUMPDEST SWAP5 SWAP4 POP POP POP POP JUMP JUMPDEST PUSH1 0x5 DUP2 SWAP1 SSTORE PUSH1 0x40 MLOAD DUP2 DUP2 MSTORE PUSH32 0xA39EACD162EE82C70B2B030A1BC8FE89ADCCCC61122FAD4821A8772DBCC54267 SWAP1 PUSH1 0x20 ADD JUMPDEST PUSH1 0x40 MLOAD DUP1 SWAP2 SUB SWAP1 LOG1 POP JUMP JUMPDEST PUSH1 0x0 PUSH1 0x4 SLOAD CALLVALUE LT ISZERO PUSH2 0x505 JUMPI PUSH1 0x40 MLOAD PUSH3 0x461BCD PUSH1 0xE5 SHL DUP2 MSTORE PUSH1 0x4 ADD PUSH2 0x370 SWAP1 PUSH2 0x1077 JUMP JUMPDEST PUSH1 0x0 PUSH2 0x50F PUSH2 0x6E0 JUMP JUMPDEST PUSH1 0x1 PUSH1 0x1 PUSH1 0xA0 SHL SUB AND PUSH4 0xD7A356BE PUSH1 0x40 MLOAD DUP2 PUSH4 0xFFFFFFFF AND PUSH1 0xE0 SHL DUP2 MSTORE PUSH1 0x4 ADD PUSH2 0x538 SWAP1 PUSH2 0xFFB JUMP JUMPDEST PUSH1 0x20 PUSH1 0x40 MLOAD DUP1 DUP4 SUB DUP2 PUSH1 0x0 DUP8 DUP1 EXTCODESIZE ISZERO DUP1 ISZERO PUSH2 0x552 JUMPI PUSH1 0x0 DUP1 REVERT JUMPDEST POP GAS CALL ISZERO DUP1 ISZERO PUSH2 0x566 JUMPI RETURNDATASIZE PUSH1 0x0 DUP1 RETURNDATACOPY RETURNDATASIZE PUSH1 0x0 REVERT JUMPDEST POP POP POP POP PUSH1 0x40 MLOAD RETURNDATASIZE PUSH1 0x1F NOT PUSH1 0x1F DUP3 ADD AND DUP3 ADD DUP1 PUSH1 0x40 MSTORE POP DUP2 ADD SWAP1 PUSH2 0x58A SWAP2 SWAP1 PUSH2 0xDF1 JUMP JUMPDEST SWAP1 POP PUSH1 0x0 PUSH2 0x61D PUSH2 0x599 PUSH2 0x6E0 JUMP JUMPDEST PUSH1 0x1 PUSH1 0x1 PUSH1 0xA0 SHL SUB AND PUSH4 0xDD953FB0 DUP5 PUSH1 0x40 MLOAD DUP3 PUSH4 0xFFFFFFFF AND PUSH1 0xE0 SHL DUP2 MSTORE PUSH1 0x4 ADD PUSH2 0x5C6 SWAP2 DUP2 MSTORE PUSH1 0x20 ADD SWAP1 JUMP JUMPDEST PUSH1 0x20 PUSH1 0x40 MLOAD DUP1 DUP4 SUB DUP2 DUP7 DUP1 EXTCODESIZE ISZERO DUP1 ISZERO PUSH2 0x5DE JUMPI PUSH1 0x0 DUP1 REVERT JUMPDEST POP GAS STATICCALL ISZERO DUP1 ISZERO PUSH2 0x5F2 JUMPI RETURNDATASIZE PUSH1 0x0 DUP1 RETURNDATACOPY RETURNDATASIZE PUSH1 0x0 REVERT JUMPDEST POP POP POP POP PUSH1 0x40 MLOAD RETURNDATASIZE PUSH1 0x1F NOT PUSH1 0x1F DUP3 ADD AND DUP3 ADD DUP1 PUSH1 0x40 MSTORE POP DUP2 ADD SWAP1 PUSH2 0x616 SWAP2 SWAP1 PUSH2 0xDF1 JUMP JUMPDEST CALLVALUE SWAP1 PUSH2 0x714 JUMP JUMPDEST SWAP1 POP PUSH2 0x628 DUP2 PUSH2 0x944 JUMP JUMPDEST SWAP3 POP POP POP SWAP1 JUMP JUMPDEST PUSH1 0x4 DUP2 SWAP1 SSTORE PUSH1 0x40 MLOAD DUP2 DUP2 MSTORE PUSH32 0xA39EACD162EE82C70B2B030A1BC8FE89ADCCCC61122FAD4821A8772DBCC54267 SWAP1 PUSH1 0x20 ADD PUSH2 0x4D6 JUMP JUMPDEST DUP1 PUSH1 0x0 DUP4 PUSH1 0x40 MLOAD PUSH2 0x675 SWAP2 SWAP1 PUSH2 0xECC JUMP JUMPDEST SWAP1 DUP2 MSTORE PUSH1 0x40 MLOAD SWAP1 DUP2 SWAP1 SUB PUSH1 0x20 ADD DUP2 KECCAK256 DUP1 SLOAD PUSH1 0x1 PUSH1 0x1 PUSH1 0xA0 SHL SUB SWAP4 SWAP1 SWAP4 AND PUSH1 0x1 PUSH1 0x1 PUSH1 0xA0 SHL SUB NOT SWAP1 SWAP4 AND SWAP3 SWAP1 SWAP3 OR SWAP1 SWAP2 SSTORE PUSH32 0xF721AB865154F222F0053098FB6752276624E5310BCB2BB9269D205ECE331D5 SWAP1 PUSH2 0x6D4 SWAP1 DUP5 SWAP1 DUP5 SWAP1 PUSH2 0xF7F JUMP JUMPDEST PUSH1 0x40 MLOAD DUP1 SWAP2 SUB SWAP1 LOG1 POP POP JUMP JUMPDEST PUSH1 0x0 PUSH2 0x70F PUSH1 0x40 MLOAD DUP1 PUSH1 0x40 ADD PUSH1 0x40 MSTORE DUP1 PUSH1 0xC DUP2 MSTORE PUSH1 0x20 ADD PUSH12 0x45584348414E474552415445 PUSH1 0xA0 SHL DUP2 MSTORE POP PUSH2 0xB9B JUMP JUMPDEST SWAP1 POP SWAP1 JUMP JUMPDEST PUSH1 0x0 PUSH2 0x722 PUSH1 0x12 PUSH1 0xA PUSH2 0x1144 JUMP JUMPDEST PUSH2 0x72C DUP5 DUP5 PUSH2 0xC0E JUMP JUMPDEST PUSH2 0x736 SWAP2 SWAP1 PUSH2 0x10E1 JUMP JUMPDEST SWAP1 POP JUMPDEST SWAP3 SWAP2 POP POP JUMP JUMPDEST PUSH1 0x0 PUSH1 0x5 SLOAD DUP3 LT ISZERO PUSH2 0x763 JUMPI PUSH1 0x40 MLOAD PUSH3 0x461BCD PUSH1 0xE5 SHL DUP2 MSTORE PUSH1 0x4 ADD PUSH2 0x370 SWAP1 PUSH2 0xFA9 JUMP JUMPDEST CALLER PUSH1 0x0 SWAP1 DUP2 MSTORE PUSH1 0x6 PUSH1 0x20 SWAP1 DUP2 MSTORE PUSH1 0x40 DUP1 DUP4 KECCAK256 DUP2 MLOAD PUSH1 0x80 DUP2 ADD DUP4 MSTORE DUP2 SLOAD PUSH1 0x1 PUSH1 0x1 PUSH1 0xA0 SHL SUB AND DUP2 MSTORE PUSH1 0x1 DUP1 DUP4 ADD SLOAD SWAP5 DUP3 ADD SWAP5 SWAP1 SWAP5 MSTORE PUSH1 0x2 DUP3 ADD SLOAD SWAP3 DUP2 ADD SWAP3 SWAP1 SWAP3 MSTORE PUSH1 0x3 DUP2 ADD SLOAD SWAP2 SWAP3 SWAP1 SWAP2 PUSH1 0x60 DUP5 ADD SWAP2 PUSH1 0xFF SWAP1 SWAP2 AND SWAP1 DUP2 GT ISZERO PUSH2 0x7D4 JUMPI PUSH4 0x4E487B71 PUSH1 0xE0 SHL PUSH1 0x0 MSTORE PUSH1 0x21 PUSH1 0x4 MSTORE PUSH1 0x24 PUSH1 0x0 REVERT JUMPDEST PUSH1 0x1 DUP2 GT ISZERO PUSH2 0x7F3 JUMPI PUSH4 0x4E487B71 PUSH1 0xE0 SHL PUSH1 0x0 MSTORE PUSH1 0x21 PUSH1 0x4 MSTORE PUSH1 0x24 PUSH1 0x0 REVERT JUMPDEST SWAP1 MSTORE POP PUSH1 0x40 DUP2 ADD MLOAD SWAP1 SWAP2 POP PUSH1 0x0 SWAP1 PUSH2 0x80B SWAP1 DUP6 PUSH2 0xC8D JUMP JUMPDEST PUSH1 0x40 DUP1 MLOAD PUSH1 0x80 DUP2 ADD DUP3 MSTORE DUP5 MLOAD PUSH1 0x1 PUSH1 0x1 PUSH1 0xA0 SHL SUB SWAP1 DUP2 AND DUP3 MSTORE PUSH1 0x20 DUP1 DUP8 ADD MLOAD DUP2 DUP5 ADD SWAP1 DUP2 MSTORE DUP4 DUP6 ADD DUP7 DUP2 MSTORE PUSH1 0x1 PUSH1 0x60 DUP7 ADD DUP2 DUP2 MSTORE CALLER PUSH1 0x0 SWAP1 DUP2 MSTORE PUSH1 0x6 SWAP1 SWAP6 MSTORE SWAP7 SWAP1 SWAP4 KECCAK256 DUP6 MLOAD DUP2 SLOAD PUSH1 0x1 PUSH1 0x1 PUSH1 0xA0 SHL SUB NOT AND SWAP6 AND SWAP5 SWAP1 SWAP5 OR DUP5 SSTORE SWAP1 MLOAD DUP4 DUP4 ADD SSTORE MLOAD PUSH1 0x2 DUP4 ADD SSTORE SWAP3 MLOAD PUSH1 0x3 DUP3 ADD DUP1 SLOAD SWAP6 SWAP7 POP SWAP3 SWAP5 SWAP2 SWAP4 SWAP1 SWAP3 SWAP2 PUSH1 0xFF NOT AND SWAP1 DUP4 DUP2 DUP2 GT ISZERO PUSH2 0x8A6 JUMPI PUSH4 0x4E487B71 PUSH1 0xE0 SHL PUSH1 0x0 MSTORE PUSH1 0x21 PUSH1 0x4 MSTORE PUSH1 0x24 PUSH1 0x0 REVERT JUMPDEST MUL OR SWAP1 SSTORE POP SWAP1 POP POP PUSH2 0x8B6 PUSH2 0xCEC JUMP JUMPDEST PUSH1 0x40 MLOAD PUSH4 0x40C10F19 PUSH1 0xE0 SHL DUP2 MSTORE CALLER PUSH1 0x4 DUP3 ADD MSTORE PUSH1 0x24 DUP2 ADD DUP8 SWAP1 MSTORE PUSH1 0x1 PUSH1 0x1 PUSH1 0xA0 SHL SUB SWAP2 SWAP1 SWAP2 AND SWAP1 PUSH4 0x40C10F19 SWAP1 PUSH1 0x44 ADD PUSH1 0x20 PUSH1 0x40 MLOAD DUP1 DUP4 SUB DUP2 PUSH1 0x0 DUP8 DUP1 EXTCODESIZE ISZERO DUP1 ISZERO PUSH2 0x900 JUMPI PUSH1 0x0 DUP1 REVERT JUMPDEST POP GAS CALL ISZERO DUP1 ISZERO PUSH2 0x914 JUMPI RETURNDATASIZE PUSH1 0x0 DUP1 RETURNDATACOPY RETURNDATASIZE PUSH1 0x0 REVERT JUMPDEST POP POP POP POP PUSH1 0x40 MLOAD RETURNDATASIZE PUSH1 0x1F NOT PUSH1 0x1F DUP3 ADD AND DUP3 ADD DUP1 PUSH1 0x40 MSTORE POP DUP2 ADD SWAP1 PUSH2 0x938 SWAP2 SWAP1 PUSH2 0xDD1 JUMP JUMPDEST POP PUSH1 0x1 SWAP6 SWAP5 POP POP POP POP POP JUMP JUMPDEST PUSH1 0x0 PUSH1 0x4 SLOAD CALLVALUE LT ISZERO PUSH2 0x968 JUMPI PUSH1 0x40 MLOAD PUSH3 0x461BCD PUSH1 0xE5 SHL DUP2 MSTORE PUSH1 0x4 ADD PUSH2 0x370 SWAP1 PUSH2 0x1077 JUMP JUMPDEST CALLER PUSH1 0x0 SWAP1 DUP2 MSTORE PUSH1 0x6 PUSH1 0x20 SWAP1 DUP2 MSTORE PUSH1 0x40 DUP1 DUP4 KECCAK256 DUP2 MLOAD PUSH1 0x80 DUP2 ADD DUP4 MSTORE DUP2 SLOAD PUSH1 0x1 PUSH1 0x1 PUSH1 0xA0 SHL SUB AND DUP2 MSTORE PUSH1 0x1 DUP1 DUP4 ADD SLOAD SWAP5 DUP3 ADD SWAP5 SWAP1 SWAP5 MSTORE PUSH1 0x2 DUP3 ADD SLOAD SWAP3 DUP2 ADD SWAP3 SWAP1 SWAP3 MSTORE PUSH1 0x3 DUP2 ADD SLOAD SWAP2 SWAP3 SWAP1 SWAP2 PUSH1 0x60 DUP5 ADD SWAP2 PUSH1 0xFF SWAP1 SWAP2 AND SWAP1 DUP2 GT ISZERO PUSH2 0x9D9 JUMPI PUSH4 0x4E487B71 PUSH1 0xE0 SHL PUSH1 0x0 MSTORE PUSH1 0x21 PUSH1 0x4 MSTORE PUSH1 0x24 PUSH1 0x0 REVERT JUMPDEST PUSH1 0x1 DUP2 GT ISZERO PUSH2 0x9F8 JUMPI PUSH4 0x4E487B71 PUSH1 0xE0 SHL PUSH1 0x0 MSTORE PUSH1 0x21 PUSH1 0x4 MSTORE PUSH1 0x24 PUSH1 0x0 REVERT JUMPDEST SWAP1 MSTORE POP PUSH1 0x20 DUP2 ADD MLOAD SWAP1 SWAP2 POP PUSH1 0x0 SWAP1 PUSH2 0xA10 SWAP1 CALLVALUE PUSH2 0xC8D JUMP JUMPDEST SWAP1 POP PUSH1 0x40 MLOAD DUP1 PUSH1 0x80 ADD PUSH1 0x40 MSTORE DUP1 DUP4 PUSH1 0x0 ADD MLOAD PUSH1 0x1 PUSH1 0x1 PUSH1 0xA0 SHL SUB AND DUP2 MSTORE PUSH1 0x20 ADD DUP3 DUP2 MSTORE PUSH1 0x20 ADD DUP4 PUSH1 0x40 ADD MLOAD DUP2 MSTORE PUSH1 0x20 ADD PUSH1 0x0 PUSH1 0x1 DUP2 GT ISZERO PUSH2 0xA61 JUMPI PUSH4 0x4E487B71 PUSH1 0xE0 SHL PUSH1 0x0 MSTORE PUSH1 0x21 PUSH1 0x4 MSTORE PUSH1 0x24 PUSH1 0x0 REVERT JUMPDEST PUSH1 0x1 DUP2 GT ISZERO PUSH2 0xA80 JUMPI PUSH4 0x4E487B71 PUSH1 0xE0 SHL PUSH1 0x0 MSTORE PUSH1 0x21 PUSH1 0x4 MSTORE PUSH1 0x24 PUSH1 0x0 REVERT JUMPDEST SWAP1 MSTORE CALLER PUSH1 0x0 SWAP1 DUP2 MSTORE PUSH1 0x6 PUSH1 0x20 SWAP1 DUP2 MSTORE PUSH1 0x40 SWAP2 DUP3 SWAP1 KECCAK256 DUP4 MLOAD DUP2 SLOAD PUSH1 0x1 PUSH1 0x1 PUSH1 0xA0 SHL SUB NOT AND PUSH1 0x1 PUSH1 0x1 PUSH1 0xA0 SHL SUB SWAP1 SWAP2 AND OR DUP2 SSTORE SWAP1 DUP4 ADD MLOAD PUSH1 0x1 DUP1 DUP4 ADD SWAP2 SWAP1 SWAP2 SSTORE SWAP2 DUP4 ADD MLOAD PUSH1 0x2 DUP3 ADD SSTORE PUSH1 0x60 DUP4 ADD MLOAD PUSH1 0x3 DUP3 ADD DUP1 SLOAD SWAP3 SWAP4 SWAP2 SWAP3 SWAP1 SWAP2 PUSH1 0xFF NOT SWAP1 SWAP2 AND SWAP1 DUP4 DUP2 DUP2 GT ISZERO PUSH2 0xAFE JUMPI PUSH4 0x4E487B71 PUSH1 0xE0 SHL PUSH1 0x0 MSTORE PUSH1 0x21 PUSH1 0x4 MSTORE PUSH1 0x24 PUSH1 0x0 REVERT JUMPDEST MUL OR SWAP1 SSTORE POP SWAP1 POP POP PUSH2 0xB0E PUSH2 0xCEC JUMP JUMPDEST PUSH1 0x40 MLOAD PUSH4 0x40C10F19 PUSH1 0xE0 SHL DUP2 MSTORE CALLER PUSH1 0x4 DUP3 ADD MSTORE PUSH1 0x24 DUP2 ADD DUP7 SWAP1 MSTORE PUSH1 0x1 PUSH1 0x1 PUSH1 0xA0 SHL SUB SWAP2 SWAP1 SWAP2 AND SWAP1 PUSH4 0x40C10F19 SWAP1 PUSH1 0x44 ADD PUSH1 0x20 PUSH1 0x40 MLOAD DUP1 DUP4 SUB DUP2 PUSH1 0x0 DUP8 DUP1 EXTCODESIZE ISZERO DUP1 ISZERO PUSH2 0xB58 JUMPI PUSH1 0x0 DUP1 REVERT JUMPDEST POP GAS CALL ISZERO DUP1 ISZERO PUSH2 0xB6C JUMPI RETURNDATASIZE PUSH1 0x0 DUP1 RETURNDATACOPY RETURNDATASIZE PUSH1 0x0 REVERT JUMPDEST POP POP POP POP PUSH1 0x40 MLOAD RETURNDATASIZE PUSH1 0x1F NOT PUSH1 0x1F DUP3 ADD AND DUP3 ADD DUP1 PUSH1 0x40 MSTORE POP DUP2 ADD SWAP1 PUSH2 0xB90 SWAP2 SWAP1 PUSH2 0xDD1 JUMP JUMPDEST POP PUSH1 0x1 SWAP5 SWAP4 POP POP POP POP JUMP JUMPDEST PUSH1 0x0 DUP1 PUSH1 0x0 DUP4 PUSH1 0x40 MLOAD PUSH2 0xBAE SWAP2 SWAP1 PUSH2 0xECC JUMP JUMPDEST SWAP1 DUP2 MSTORE PUSH1 0x40 MLOAD PUSH1 0x20 SWAP2 DUP2 SWAP1 SUB DUP3 ADD DUP2 KECCAK256 SLOAD PUSH1 0x1 PUSH1 0x1 PUSH1 0xA0 SHL SUB AND SWAP3 POP DUP3 ISZERO ISZERO SWAP2 PUSH2 0xBDA SWAP2 DUP7 SWAP2 ADD PUSH2 0xEE8 JUMP JUMPDEST PUSH1 0x40 MLOAD PUSH1 0x20 DUP2 DUP4 SUB SUB DUP2 MSTORE SWAP1 PUSH1 0x40 MSTORE SWAP1 PUSH2 0xC07 JUMPI PUSH1 0x40 MLOAD PUSH3 0x461BCD PUSH1 0xE5 SHL DUP2 MSTORE PUSH1 0x4 ADD PUSH2 0x370 SWAP2 SWAP1 PUSH2 0xF6C JUMP JUMPDEST POP SWAP3 SWAP2 POP POP JUMP JUMPDEST PUSH1 0x0 DUP3 PUSH2 0xC1D JUMPI POP PUSH1 0x0 PUSH2 0x739 JUMP JUMPDEST PUSH1 0x0 PUSH2 0xC29 DUP4 DUP6 PUSH2 0x11EC JUMP JUMPDEST SWAP1 POP DUP3 PUSH2 0xC36 DUP6 DUP4 PUSH2 0x10E1 JUMP JUMPDEST EQ PUSH2 0x736 JUMPI PUSH1 0x40 MLOAD PUSH3 0x461BCD PUSH1 0xE5 SHL DUP2 MSTORE PUSH1 0x20 PUSH1 0x4 DUP3 ADD MSTORE PUSH1 0x21 PUSH1 0x24 DUP3 ADD MSTORE PUSH32 0x536166654D6174683A206D756C7469706C69636174696F6E206F766572666C6F PUSH1 0x44 DUP3 ADD MSTORE PUSH1 0x77 PUSH1 0xF8 SHL PUSH1 0x64 DUP3 ADD MSTORE PUSH1 0x84 ADD PUSH2 0x370 JUMP JUMPDEST PUSH1 0x0 DUP1 PUSH2 0xC9A DUP4 DUP6 PUSH2 0x10C9 JUMP JUMPDEST SWAP1 POP DUP4 DUP2 LT ISZERO PUSH2 0x736 JUMPI PUSH1 0x40 MLOAD PUSH3 0x461BCD PUSH1 0xE5 SHL DUP2 MSTORE PUSH1 0x20 PUSH1 0x4 DUP3 ADD MSTORE PUSH1 0x1B PUSH1 0x24 DUP3 ADD MSTORE PUSH32 0x536166654D6174683A206164646974696F6E206F766572666C6F770000000000 PUSH1 0x44 DUP3 ADD MSTORE PUSH1 0x64 ADD PUSH2 0x370 JUMP JUMPDEST PUSH1 0x0 PUSH2 0x70F PUSH1 0x40 MLOAD DUP1 PUSH1 0x40 ADD PUSH1 0x40 MSTORE DUP1 PUSH1 0x5 DUP2 MSTORE PUSH1 0x20 ADD PUSH5 0x16111554D1 PUSH1 0xDA SHL DUP2 MSTORE POP PUSH2 0xB9B JUMP JUMPDEST DUP1 CALLDATALOAD PUSH1 0x1 PUSH1 0x1 PUSH1 0xA0 SHL SUB DUP2 AND DUP2 EQ PUSH2 0xD2B JUMPI PUSH1 0x0 DUP1 REVERT JUMPDEST SWAP2 SWAP1 POP JUMP JUMPDEST PUSH1 0x0 DUP3 PUSH1 0x1F DUP4 ADD SLT PUSH2 0xD40 JUMPI DUP1 DUP2 REVERT JUMPDEST DUP2 CALLDATALOAD PUSH8 0xFFFFFFFFFFFFFFFF DUP1 DUP3 GT ISZERO PUSH2 0xD5B JUMPI PUSH2 0xD5B PUSH2 0x1251 JUMP JUMPDEST PUSH1 0x40 MLOAD PUSH1 0x1F DUP4 ADD PUSH1 0x1F NOT SWAP1 DUP2 AND PUSH1 0x3F ADD AND DUP2 ADD SWAP1 DUP3 DUP3 GT DUP2 DUP4 LT OR ISZERO PUSH2 0xD83 JUMPI PUSH2 0xD83 PUSH2 0x1251 JUMP JUMPDEST DUP2 PUSH1 0x40 MSTORE DUP4 DUP2 MSTORE DUP7 PUSH1 0x20 DUP6 DUP9 ADD ADD GT ISZERO PUSH2 0xD9B JUMPI DUP5 DUP6 REVERT JUMPDEST DUP4 PUSH1 0x20 DUP8 ADD PUSH1 0x20 DUP4 ADD CALLDATACOPY SWAP3 DUP4 ADD PUSH1 0x20 ADD SWAP4 SWAP1 SWAP4 MSTORE POP SWAP4 SWAP3 POP POP POP JUMP JUMPDEST PUSH1 0x0 PUSH1 0x20 DUP3 DUP5 SUB SLT ISZERO PUSH2 0xDC8 JUMPI DUP1 DUP2 REVERT JUMPDEST PUSH2 0x736 DUP3 PUSH2 0xD14 JUMP JUMPDEST PUSH1 0x0 PUSH1 0x20 DUP3 DUP5 SUB SLT ISZERO PUSH2 0xDE2 JUMPI DUP1 DUP2 REVERT JUMPDEST DUP2 MLOAD DUP1 ISZERO ISZERO DUP2 EQ PUSH2 0x736 JUMPI DUP2 DUP3 REVERT JUMPDEST PUSH1 0x0 PUSH1 0x20 DUP3 DUP5 SUB SLT ISZERO PUSH2 0xE02 JUMPI DUP1 DUP2 REVERT JUMPDEST POP MLOAD SWAP2 SWAP1 POP JUMP JUMPDEST PUSH1 0x0 PUSH1 0x20 DUP3 DUP5 SUB SLT ISZERO PUSH2 0xE1A JUMPI DUP1 DUP2 REVERT JUMPDEST DUP2 CALLDATALOAD PUSH8 0xFFFFFFFFFFFFFFFF DUP2 GT ISZERO PUSH2 0xE30 JUMPI DUP2 DUP3 REVERT JUMPDEST PUSH2 0x49D DUP5 DUP3 DUP6 ADD PUSH2 0xD30 JUMP JUMPDEST PUSH1 0x0 DUP1 PUSH1 0x40 DUP4 DUP6 SUB SLT ISZERO PUSH2 0xE4E JUMPI DUP1 DUP2 REVERT JUMPDEST DUP3 CALLDATALOAD PUSH8 0xFFFFFFFFFFFFFFFF DUP2 GT ISZERO PUSH2 0xE64 JUMPI DUP2 DUP3 REVERT JUMPDEST PUSH2 0xE70 DUP6 DUP3 DUP7 ADD PUSH2 0xD30 JUMP JUMPDEST SWAP3 POP POP PUSH2 0xE7F PUSH1 0x20 DUP5 ADD PUSH2 0xD14 JUMP JUMPDEST SWAP1 POP SWAP3 POP SWAP3 SWAP1 POP JUMP JUMPDEST PUSH1 0x0 PUSH1 0x20 DUP3 DUP5 SUB SLT ISZERO PUSH2 0xE99 JUMPI DUP1 DUP2 REVERT JUMPDEST POP CALLDATALOAD SWAP2 SWAP1 POP JUMP JUMPDEST PUSH1 0x0 DUP2 MLOAD DUP1 DUP5 MSTORE PUSH2 0xEB8 DUP2 PUSH1 0x20 DUP7 ADD PUSH1 0x20 DUP7 ADD PUSH2 0x120B JUMP JUMPDEST PUSH1 0x1F ADD PUSH1 0x1F NOT AND SWAP3 SWAP1 SWAP3 ADD PUSH1 0x20 ADD SWAP3 SWAP2 POP POP JUMP JUMPDEST PUSH1 0x0 DUP3 MLOAD PUSH2 0xEDE DUP2 DUP5 PUSH1 0x20 DUP8 ADD PUSH2 0x120B JUMP JUMPDEST SWAP2 SWAP1 SWAP2 ADD SWAP3 SWAP2 POP POP JUMP JUMPDEST PUSH17 0x26B4B9B9B4B7339030B2323932B9B99D1 PUSH1 0x7D SHL DUP2 MSTORE PUSH1 0x0 DUP3 MLOAD PUSH2 0xF14 DUP2 PUSH1 0x11 DUP6 ADD PUSH1 0x20 DUP8 ADD PUSH2 0x120B JUMP JUMPDEST SWAP2 SWAP1 SWAP2 ADD PUSH1 0x11 ADD SWAP3 SWAP2 POP POP JUMP JUMPDEST PUSH1 0x1 PUSH1 0x1 PUSH1 0xA0 SHL SUB DUP6 AND DUP2 MSTORE PUSH1 0x20 DUP2 ADD DUP5 SWAP1 MSTORE PUSH1 0x40 DUP2 ADD DUP4 SWAP1 MSTORE PUSH1 0x80 DUP2 ADD PUSH1 0x2 DUP4 LT PUSH2 0xF5D JUMPI PUSH4 0x4E487B71 PUSH1 0xE0 SHL PUSH1 0x0 MSTORE PUSH1 0x21 PUSH1 0x4 MSTORE PUSH1 0x24 PUSH1 0x0 REVERT JUMPDEST DUP3 PUSH1 0x60 DUP4 ADD MSTORE SWAP6 SWAP5 POP POP POP POP POP JUMP JUMPDEST PUSH1 0x20 DUP2 MSTORE PUSH1 0x0 PUSH2 0x736 PUSH1 0x20 DUP4 ADD DUP5 PUSH2 0xEA0 JUMP JUMPDEST PUSH1 0x40 DUP2 MSTORE PUSH1 0x0 PUSH2 0xF92 PUSH1 0x40 DUP4 ADD DUP6 PUSH2 0xEA0 JUMP JUMPDEST SWAP1 POP PUSH1 0x1 DUP1 PUSH1 0xA0 SHL SUB DUP4 AND PUSH1 0x20 DUP4 ADD MSTORE SWAP4 SWAP3 POP POP POP JUMP JUMPDEST PUSH1 0x20 DUP1 DUP3 MSTORE PUSH1 0x32 SWAP1 DUP3 ADD MSTORE PUSH32 0x504C4920616D6F756E742053686F756C64206265206D696E696D756D504C4944 PUSH1 0x40 DUP3 ADD MSTORE PUSH18 0x195C1BDCDA5D105B5BDD5B9D081B1A5B5A5D PUSH1 0x72 SHL PUSH1 0x60 DUP3 ADD MSTORE PUSH1 0x80 ADD SWAP1 JUMP JUMPDEST PUSH1 0x40 DUP2 MSTORE PUSH1 0x3 PUSH1 0x40 DUP3 ADD MSTORE PUSH3 0x584443 PUSH1 0xE8 SHL PUSH1 0x60 DUP3 ADD MSTORE PUSH1 0x80 PUSH1 0x20 DUP3 ADD MSTORE PUSH1 0x0 PUSH2 0x739 PUSH1 0x80 DUP4 ADD PUSH1 0x4 DUP2 MSTORE PUSH4 0x1554D115 PUSH1 0xE2 SHL PUSH1 0x20 DUP3 ADD MSTORE PUSH1 0x40 ADD SWAP1 JUMP JUMPDEST PUSH1 0x40 DUP2 MSTORE PUSH1 0x3 PUSH1 0x40 DUP3 ADD MSTORE PUSH3 0x504C49 PUSH1 0xE8 SHL PUSH1 0x60 DUP3 ADD MSTORE PUSH1 0x80 PUSH1 0x20 DUP3 ADD MSTORE PUSH1 0x0 PUSH2 0x739 PUSH1 0x80 DUP4 ADD PUSH1 0x4 DUP2 MSTORE PUSH4 0x1554D115 PUSH1 0xE2 SHL PUSH1 0x20 DUP3 ADD MSTORE PUSH1 0x40 ADD SWAP1 JUMP JUMPDEST PUSH1 0x20 DUP1 DUP3 MSTORE PUSH1 0x32 SWAP1 DUP3 ADD MSTORE PUSH32 0x58444320616D6F756E742053686F756C64206265206D696E696D756D58444344 PUSH1 0x40 DUP3 ADD MSTORE PUSH18 0x195C1BDCDA5D105B5BDD5B9D081B1A5B5A5D PUSH1 0x72 SHL PUSH1 0x60 DUP3 ADD MSTORE PUSH1 0x80 ADD SWAP1 JUMP JUMPDEST PUSH1 0x0 DUP3 NOT DUP3 GT ISZERO PUSH2 0x10DC JUMPI PUSH2 0x10DC PUSH2 0x123B JUMP JUMPDEST POP ADD SWAP1 JUMP JUMPDEST PUSH1 0x0 DUP3 PUSH2 0x10FC JUMPI PUSH4 0x4E487B71 PUSH1 0xE0 SHL DUP2 MSTORE PUSH1 0x12 PUSH1 0x4 MSTORE PUSH1 0x24 DUP2 REVERT JUMPDEST POP DIV SWAP1 JUMP JUMPDEST PUSH1 0x1 DUP2 DUP2 JUMPDEST DUP1 DUP6 GT ISZERO PUSH2 0x113C JUMPI DUP2 PUSH1 0x0 NOT DIV DUP3 GT ISZERO PUSH2 0x1122 JUMPI PUSH2 0x1122 PUSH2 0x123B JUMP JUMPDEST DUP1 DUP6 AND ISZERO PUSH2 0x112F JUMPI SWAP2 DUP2 MUL SWAP2 JUMPDEST SWAP4 DUP5 SHR SWAP4 SWAP1 DUP1 MUL SWAP1 PUSH2 0x1106 JUMP JUMPDEST POP SWAP3 POP SWAP3 SWAP1 POP JUMP JUMPDEST PUSH1 0x0 PUSH2 0x736 DUP4 DUP4 PUSH1 0x0 DUP3 PUSH2 0x115A JUMPI POP PUSH1 0x1 PUSH2 0x739 JUMP JUMPDEST DUP2 PUSH2 0x1167 JUMPI POP PUSH1 0x0 PUSH2 0x739 JUMP JUMPDEST DUP2 PUSH1 0x1 DUP2 EQ PUSH2 0x117D JUMPI PUSH1 0x2 DUP2 EQ PUSH2 0x1187 JUMPI PUSH2 0x11A3 JUMP JUMPDEST PUSH1 0x1 SWAP2 POP POP PUSH2 0x739 JUMP JUMPDEST PUSH1 0xFF DUP5 GT ISZERO PUSH2 0x1198 JUMPI PUSH2 0x1198 PUSH2 0x123B JUMP JUMPDEST POP POP PUSH1 0x1 DUP3 SHL PUSH2 0x739 JUMP JUMPDEST POP PUSH1 0x20 DUP4 LT PUSH2 0x133 DUP4 LT AND PUSH1 0x4E DUP5 LT PUSH1 0xB DUP5 LT AND OR ISZERO PUSH2 0x11C6 JUMPI POP DUP2 DUP2 EXP PUSH2 0x739 JUMP JUMPDEST PUSH2 0x11D0 DUP4 DUP4 PUSH2 0x1101 JUMP JUMPDEST DUP1 PUSH1 0x0 NOT DIV DUP3 GT ISZERO PUSH2 0x11E4 JUMPI PUSH2 0x11E4 PUSH2 0x123B JUMP JUMPDEST MUL SWAP4 SWAP3 POP POP POP JUMP JUMPDEST PUSH1 0x0 DUP2 PUSH1 0x0 NOT DIV DUP4 GT DUP3 ISZERO ISZERO AND ISZERO PUSH2 0x1206 JUMPI PUSH2 0x1206 PUSH2 0x123B JUMP JUMPDEST POP MUL SWAP1 JUMP JUMPDEST PUSH1 0x0 JUMPDEST DUP4 DUP2 LT ISZERO PUSH2 0x1226 JUMPI DUP2 DUP2 ADD MLOAD DUP4 DUP3 ADD MSTORE PUSH1 0x20 ADD PUSH2 0x120E JUMP JUMPDEST DUP4 DUP2 GT ISZERO PUSH2 0x1235 JUMPI PUSH1 0x0 DUP5 DUP5 ADD MSTORE JUMPDEST POP POP POP POP JUMP JUMPDEST PUSH4 0x4E487B71 PUSH1 0xE0 SHL PUSH1 0x0 MSTORE PUSH1 0x11 PUSH1 0x4 MSTORE PUSH1 0x24 PUSH1 0x0 REVERT JUMPDEST PUSH4 0x4E487B71 PUSH1 0xE0 SHL PUSH1 0x0 MSTORE PUSH1 0x41 PUSH1 0x4 MSTORE PUSH1 0x24 PUSH1 0x0 REVERT INVALID LOG2 PUSH5 0x6970667358 0x22 SLT KECCAK256 0x4C 0xD5 PUSH7 0xE1AEB9FC022722 0xD4 PUSH23 0x74196DB13CAD094C538E4CDA4ECAC2B72EE41F764736F PUSH13 0x63430008040033000000000000 "
        },
        "methodIdentifiers": {
          "CONTRACTNAME()": "f1875744",
          "CONTRACT_NAME()": "614d08f8",
          "_owner()": "b2bdfa7b",
          "addressCache(string)": "a4b19d01",
          "contractOwner()": "ce606ee0",
          "deposits(address)": "fc7e286d",
          "minimumPLIDepositAmount()": "3b6fba1a",
          "minimumXDCDepositAmount()": "056c5aa9",
          "mintr(address)": "d6ea7b3b",
          "mintxdUSDForPLI(uint256)": "5afdab9f",
          "mintxdUSDForXDC()": "83e10787",
          "setMinDepositForPLI(uint256)": "5f230a61",
          "setMinDepositForXDC(uint256)": "e52346d0",
          "updateCache(string,address)": "fc6f4c1b"
        }
      }
    }
  }
}