{
  "contracts/utils/SafeDecimalMath.sol": {
    "SafeDecimalMath": {
      "abi": [
        {
          "inputs": [],
          "name": "PRECISE_UNIT",
          "outputs": [
            {
              "internalType": "uint256",
              "name": "",
              "type": "uint256"
            }
          ],
          "stateMutability": "view",
          "type": "function"
        },
        {
          "inputs": [],
          "name": "UNIT",
          "outputs": [
            {
              "internalType": "uint256",
              "name": "",
              "type": "uint256"
            }
          ],
          "stateMutability": "view",
          "type": "function"
        },
        {
          "inputs": [],
          "name": "decimals",
          "outputs": [
            {
              "internalType": "uint8",
              "name": "",
              "type": "uint8"
            }
          ],
          "stateMutability": "view",
          "type": "function"
        },
        {
          "inputs": [],
          "name": "highPrecisionDecimals",
          "outputs": [
            {
              "internalType": "uint8",
              "name": "",
              "type": "uint8"
            }
          ],
          "stateMutability": "view",
          "type": "function"
        },
        {
          "inputs": [],
          "name": "preciseUnit",
          "outputs": [
            {
              "internalType": "uint256",
              "name": "",
              "type": "uint256"
            }
          ],
          "stateMutability": "pure",
          "type": "function"
        },
        {
          "inputs": [],
          "name": "unit",
          "outputs": [
            {
              "internalType": "uint256",
              "name": "",
              "type": "uint256"
            }
          ],
          "stateMutability": "pure",
          "type": "function"
        }
      ],
      "evm": {
        "bytecode": {
          "linkReferences": {},
          "object": "61024761003a600b82828239805160001a60731461002d57634e487b7160e01b600052600060045260246000fd5b30600052607381538281f3fe730000000000000000000000000000000000000000301460806040526004361061006c5760003560e01c8063313ce56714610071578063864029e714610090578063907af6c0146100a65780639d8e2177146100ae578063d5e5e6e6146100b6578063def4419d146100be575b600080fd5b610079601281565b60405160ff90911681526020015b60405180910390f35b6100986100c6565b604051908152602001610087565b6100986100d5565b6100986100e8565b6100986100f4565b610079601b81565b6100d2601b600a610145565b81565b60006100e36012600a610145565b905090565b6100d26012600a610145565b60006100e3601b600a610145565b600181815b8085111561013d578160001904821115610123576101236101fb565b8085161561013057918102915b93841c9390800290610107565b509250929050565b60006101518383610158565b9392505050565b600082610167575060016101f5565b81610174575060006101f5565b816001811461018a5760028114610194576101b0565b60019150506101f5565b60ff8411156101a5576101a56101fb565b50506001821b6101f5565b5060208310610133831016604e8410600b84101617156101d3575081810a6101f5565b6101dd8383610102565b80600019048211156101f1576101f16101fb565b0290505b92915050565b634e487b7160e01b600052601160045260246000fdfea2646970667358221220d8ae01787d68b0dd05cd229bf82b5b49c2f2fe680f6c55e665b46d0c7ba4bc2564736f6c63430008040033",
          "opcodes": "PUSH2 0x247 PUSH2 0x3A PUSH1 0xB DUP3 DUP3 DUP3 CODECOPY DUP1 MLOAD PUSH1 0x0 BYTE PUSH1 0x73 EQ PUSH2 0x2D JUMPI PUSH4 0x4E487B71 PUSH1 0xE0 SHL PUSH1 0x0 MSTORE PUSH1 0x0 PUSH1 0x4 MSTORE PUSH1 0x24 PUSH1 0x0 REVERT JUMPDEST ADDRESS PUSH1 0x0 MSTORE PUSH1 0x73 DUP2 MSTORE8 DUP3 DUP2 RETURN INVALID PUSH20 0x0 ADDRESS EQ PUSH1 0x80 PUSH1 0x40 MSTORE PUSH1 0x4 CALLDATASIZE LT PUSH2 0x6C JUMPI PUSH1 0x0 CALLDATALOAD PUSH1 0xE0 SHR DUP1 PUSH4 0x313CE567 EQ PUSH2 0x71 JUMPI DUP1 PUSH4 0x864029E7 EQ PUSH2 0x90 JUMPI DUP1 PUSH4 0x907AF6C0 EQ PUSH2 0xA6 JUMPI DUP1 PUSH4 0x9D8E2177 EQ PUSH2 0xAE JUMPI DUP1 PUSH4 0xD5E5E6E6 EQ PUSH2 0xB6 JUMPI DUP1 PUSH4 0xDEF4419D EQ PUSH2 0xBE JUMPI JUMPDEST PUSH1 0x0 DUP1 REVERT JUMPDEST PUSH2 0x79 PUSH1 0x12 DUP2 JUMP JUMPDEST PUSH1 0x40 MLOAD PUSH1 0xFF SWAP1 SWAP2 AND DUP2 MSTORE PUSH1 0x20 ADD JUMPDEST PUSH1 0x40 MLOAD DUP1 SWAP2 SUB SWAP1 RETURN JUMPDEST PUSH2 0x98 PUSH2 0xC6 JUMP JUMPDEST PUSH1 0x40 MLOAD SWAP1 DUP2 MSTORE PUSH1 0x20 ADD PUSH2 0x87 JUMP JUMPDEST PUSH2 0x98 PUSH2 0xD5 JUMP JUMPDEST PUSH2 0x98 PUSH2 0xE8 JUMP JUMPDEST PUSH2 0x98 PUSH2 0xF4 JUMP JUMPDEST PUSH2 0x79 PUSH1 0x1B DUP2 JUMP JUMPDEST PUSH2 0xD2 PUSH1 0x1B PUSH1 0xA PUSH2 0x145 JUMP JUMPDEST DUP2 JUMP JUMPDEST PUSH1 0x0 PUSH2 0xE3 PUSH1 0x12 PUSH1 0xA PUSH2 0x145 JUMP JUMPDEST SWAP1 POP SWAP1 JUMP JUMPDEST PUSH2 0xD2 PUSH1 0x12 PUSH1 0xA PUSH2 0x145 JUMP JUMPDEST PUSH1 0x0 PUSH2 0xE3 PUSH1 0x1B PUSH1 0xA PUSH2 0x145 JUMP JUMPDEST PUSH1 0x1 DUP2 DUP2 JUMPDEST DUP1 DUP6 GT ISZERO PUSH2 0x13D JUMPI DUP2 PUSH1 0x0 NOT DIV DUP3 GT ISZERO PUSH2 0x123 JUMPI PUSH2 0x123 PUSH2 0x1FB JUMP JUMPDEST DUP1 DUP6 AND ISZERO PUSH2 0x130 JUMPI SWAP2 DUP2 MUL SWAP2 JUMPDEST SWAP4 DUP5 SHR SWAP4 SWAP1 DUP1 MUL SWAP1 PUSH2 0x107 JUMP JUMPDEST POP SWAP3 POP SWAP3 SWAP1 POP JUMP JUMPDEST PUSH1 0x0 PUSH2 0x151 DUP4 DUP4 PUSH2 0x158 JUMP JUMPDEST SWAP4 SWAP3 POP POP POP JUMP JUMPDEST PUSH1 0x0 DUP3 PUSH2 0x167 JUMPI POP PUSH1 0x1 PUSH2 0x1F5 JUMP JUMPDEST DUP2 PUSH2 0x174 JUMPI POP PUSH1 0x0 PUSH2 0x1F5 JUMP JUMPDEST DUP2 PUSH1 0x1 DUP2 EQ PUSH2 0x18A JUMPI PUSH1 0x2 DUP2 EQ PUSH2 0x194 JUMPI PUSH2 0x1B0 JUMP JUMPDEST PUSH1 0x1 SWAP2 POP POP PUSH2 0x1F5 JUMP JUMPDEST PUSH1 0xFF DUP5 GT ISZERO PUSH2 0x1A5 JUMPI PUSH2 0x1A5 PUSH2 0x1FB JUMP JUMPDEST POP POP PUSH1 0x1 DUP3 SHL PUSH2 0x1F5 JUMP JUMPDEST POP PUSH1 0x20 DUP4 LT PUSH2 0x133 DUP4 LT AND PUSH1 0x4E DUP5 LT PUSH1 0xB DUP5 LT AND OR ISZERO PUSH2 0x1D3 JUMPI POP DUP2 DUP2 EXP PUSH2 0x1F5 JUMP JUMPDEST PUSH2 0x1DD DUP4 DUP4 PUSH2 0x102 JUMP JUMPDEST DUP1 PUSH1 0x0 NOT DIV DUP3 GT ISZERO PUSH2 0x1F1 JUMPI PUSH2 0x1F1 PUSH2 0x1FB JUMP JUMPDEST MUL SWAP1 POP JUMPDEST SWAP3 SWAP2 POP POP JUMP JUMPDEST PUSH4 0x4E487B71 PUSH1 0xE0 SHL PUSH1 0x0 MSTORE PUSH1 0x11 PUSH1 0x4 MSTORE PUSH1 0x24 PUSH1 0x0 REVERT INVALID LOG2 PUSH5 0x6970667358 0x22 SLT KECCAK256 0xD8 0xAE ADD PUSH25 0x7D68B0DD05CD229BF82B5B49C2F2FE680F6C55E665B46D0C7B LOG4 0xBC 0x25 PUSH5 0x736F6C6343 STOP ADDMOD DIV STOP CALLER "
        },
        "methodIdentifiers": {
          "PRECISE_UNIT()": "864029e7",
          "UNIT()": "9d8e2177",
          "decimals()": "313ce567",
          "highPrecisionDecimals()": "def4419d",
          "preciseUnit()": "d5e5e6e6",
          "unit()": "907af6c0"
        }
      }
    }
  }
}