{
  "_format": "hh-sol-artifact-1",
  "contractName": "SampleContract",
  "sourceName": "contracts/SampleContract.sol",
  "abi": [
    {
      "inputs": [
        {
          "internalType": "address",
          "name": "_pli",
          "type": "address"
        }
      ],
      "stateMutability": "nonpayable",
      "type": "constructor"
    },
    {
      "anonymous": false,
      "inputs": [
        {
          "indexed": false,
          "internalType": "uint256",
          "name": "flightId",
          "type": "uint256"
        },
        {
          "indexed": false,
          "internalType": "string",
          "name": "eventType",
          "type": "string"
        },
        {
          "indexed": false,
          "internalType": "address",
          "name": "flight",
          "type": "address"
        },
        {
          "indexed": false,
          "internalType": "address",
          "name": "performedBy",
          "type": "address"
        },
        {
          "indexed": false,
          "internalType": "uint256",
          "name": "performedOn",
          "type": "uint256"
        }
      ],
      "name": "FlightEvents",
      "type": "event"
    },
    {
      "anonymous": false,
      "inputs": [
        {
          "indexed": false,
          "internalType": "uint256",
          "name": "insuranceid",
          "type": "uint256"
        },
        {
          "indexed": false,
          "internalType": "string",
          "name": "eventType",
          "type": "string"
        },
        {
          "indexed": false,
          "internalType": "address",
          "name": "passenger",
          "type": "address"
        },
        {
          "indexed": false,
          "internalType": "address",
          "name": "performedBy",
          "type": "address"
        },
        {
          "indexed": false,
          "internalType": "uint256",
          "name": "performedOn",
          "type": "uint256"
        }
      ],
      "name": "InsuranceEvents",
      "type": "event"
    },
    {
      "anonymous": false,
      "inputs": [
        {
          "indexed": true,
          "internalType": "bytes32",
          "name": "id",
          "type": "bytes32"
        }
      ],
      "name": "PluginCancelled",
      "type": "event"
    },
    {
      "anonymous": false,
      "inputs": [
        {
          "indexed": true,
          "internalType": "bytes32",
          "name": "id",
          "type": "bytes32"
        }
      ],
      "name": "PluginFulfilled",
      "type": "event"
    },
    {
      "anonymous": false,
      "inputs": [
        {
          "indexed": true,
          "internalType": "bytes32",
          "name": "id",
          "type": "bytes32"
        }
      ],
      "name": "PluginRequested",
      "type": "event"
    },
    {
      "anonymous": false,
      "inputs": [
        {
          "indexed": true,
          "internalType": "bytes32",
          "name": "requestId",
          "type": "bytes32"
        },
        {
          "indexed": true,
          "internalType": "uint256",
          "name": "otp",
          "type": "uint256"
        }
      ],
      "name": "RequestPermissionFulfilled",
      "type": "event"
    },
    {
      "anonymous": false,
      "inputs": [
        {
          "indexed": true,
          "internalType": "address",
          "name": "requester",
          "type": "address"
        },
        {
          "indexed": true,
          "internalType": "bytes32",
          "name": "jobId",
          "type": "bytes32"
        },
        {
          "indexed": true,
          "internalType": "bytes32",
          "name": "requestId",
          "type": "bytes32"
        }
      ],
      "name": "requestCreated",
      "type": "event"
    },
    {
      "inputs": [
        {
          "internalType": "address",
          "name": "_passengerAddress",
          "type": "address"
        },
        {
          "internalType": "string",
          "name": "_carrierFlightNumber",
          "type": "string"
        },
        {
          "internalType": "uint256",
          "name": "_departureOn",
          "type": "uint256"
        },
        {
          "internalType": "uint256",
          "name": "_arrivalOn",
          "type": "uint256"
        },
        {
          "internalType": "uint256",
          "name": "_travelday",
          "type": "uint256"
        }
      ],
      "name": "bookInsurance",
      "outputs": [
        {
          "internalType": "uint256",
          "name": "",
          "type": "uint256"
        }
      ],
      "stateMutability": "nonpayable",
      "type": "function"
    },
    {
      "inputs": [
        {
          "internalType": "uint256",
          "name": "",
          "type": "uint256"
        },
        {
          "internalType": "address",
          "name": "",
          "type": "address"
        }
      ],
      "name": "claimRequest",
      "outputs": [
        {
          "internalType": "bytes32",
          "name": "",
          "type": "bytes32"
        }
      ],
      "stateMutability": "view",
      "type": "function"
    },
    {
      "inputs": [
        {
          "internalType": "bytes32",
          "name": "",
          "type": "bytes32"
        }
      ],
      "name": "claims",
      "outputs": [
        {
          "internalType": "uint256",
          "name": "polictyid",
          "type": "uint256"
        },
        {
          "internalType": "address",
          "name": "passenger",
          "type": "address"
        },
        {
          "internalType": "string",
          "name": "carrierFlightNumber",
          "type": "string"
        },
        {
          "internalType": "uint256",
          "name": "departureOn",
          "type": "uint256"
        },
        {
          "internalType": "uint256",
          "name": "arrivalOn",
          "type": "uint256"
        },
        {
          "internalType": "uint256",
          "name": "bookedOn",
          "type": "uint256"
        },
        {
          "internalType": "enum IStatus.FlightStatus",
          "name": "flightStatus",
          "type": "uint8"
        },
        {
          "internalType": "uint256",
          "name": "yearmonthdate",
          "type": "uint256"
        },
        {
          "internalType": "bool",
          "name": "processed",
          "type": "bool"
        }
      ],
      "stateMutability": "view",
      "type": "function"
    },
    {
      "inputs": [
        {
          "internalType": "uint256",
          "name": "",
          "type": "uint256"
        },
        {
          "internalType": "address",
          "name": "",
          "type": "address"
        }
      ],
      "name": "flights",
      "outputs": [
        {
          "internalType": "uint256",
          "name": "flightId",
          "type": "uint256"
        },
        {
          "internalType": "string",
          "name": "carrierFlightNumber",
          "type": "string"
        },
        {
          "internalType": "string",
          "name": "serviceProviderName",
          "type": "string"
        },
        {
          "internalType": "address",
          "name": "serviceProvider",
          "type": "address"
        },
        {
          "internalType": "uint256",
          "name": "registeredOn",
          "type": "uint256"
        },
        {
          "internalType": "address",
          "name": "registeredBy",
          "type": "address"
        }
      ],
      "stateMutability": "view",
      "type": "function"
    },
    {
      "inputs": [
        {
          "internalType": "bytes32",
          "name": "_requestId",
          "type": "bytes32"
        },
        {
          "internalType": "enum IStatus.FlightStatus",
          "name": "_flightStatus",
          "type": "uint8"
        }
      ],
      "name": "fulfillClaimInquiry",
      "outputs": [],
      "stateMutability": "nonpayable",
      "type": "function"
    },
    {
      "inputs": [
        {
          "internalType": "uint256",
          "name": "",
          "type": "uint256"
        },
        {
          "internalType": "address",
          "name": "",
          "type": "address"
        }
      ],
      "name": "insurances",
      "outputs": [
        {
          "internalType": "uint256",
          "name": "polictyid",
          "type": "uint256"
        },
        {
          "internalType": "address",
          "name": "passenger",
          "type": "address"
        },
        {
          "internalType": "string",
          "name": "carrierFlightNumber",
          "type": "string"
        },
        {
          "internalType": "uint256",
          "name": "departureOn",
          "type": "uint256"
        },
        {
          "internalType": "uint256",
          "name": "arrivalOn",
          "type": "uint256"
        },
        {
          "internalType": "uint256",
          "name": "bookedOn",
          "type": "uint256"
        },
        {
          "internalType": "enum IStatus.FlightStatus",
          "name": "flightStatus",
          "type": "uint8"
        },
        {
          "internalType": "uint256",
          "name": "yearmonthdate",
          "type": "uint256"
        },
        {
          "internalType": "bool",
          "name": "processed",
          "type": "bool"
        }
      ],
      "stateMutability": "view",
      "type": "function"
    },
    {
      "inputs": [],
      "name": "owner",
      "outputs": [
        {
          "internalType": "address",
          "name": "",
          "type": "address"
        }
      ],
      "stateMutability": "view",
      "type": "function"
    },
    {
      "inputs": [
        {
          "internalType": "address",
          "name": "_flightAddress",
          "type": "address"
        },
        {
          "internalType": "string",
          "name": "_carrierFlightNumber",
          "type": "string"
        },
        {
          "internalType": "string",
          "name": "_serviceProviderName",
          "type": "string"
        }
      ],
      "name": "registerFlights",
      "outputs": [
        {
          "internalType": "uint256",
          "name": "",
          "type": "uint256"
        }
      ],
      "stateMutability": "nonpayable",
      "type": "function"
    },
    {
      "inputs": [
        {
          "internalType": "uint256",
          "name": "_insuranceid",
          "type": "uint256"
        },
        {
          "internalType": "address",
          "name": "_oracleAddress",
          "type": "address"
        },
        {
          "internalType": "string",
          "name": "_jobid",
          "type": "string"
        }
      ],
      "name": "submitMyClaim",
      "outputs": [],
      "stateMutability": "nonpayable",
      "type": "function"
    }
  ],
  "bytecode": "0x608060405260016004553480156200001657600080fd5b5060405162001bb038038062001bb08339810160408190526200003991620000a7565b600280546001600160a01b0319166001600160a01b03831617905560088054336001600160a01b03199091161790556200008060066200009e602090811b62000d4e17901c565b6200009760076200009e60201b62000d4e1760201c565b50620000d7565b80546001019055565b600060208284031215620000b9578081fd5b81516001600160a01b0381168114620000d0578182fd5b9392505050565b611ac980620000e76000396000f3fe608060405234801561001057600080fd5b50600436106100935760003560e01c80635996e024116100665780635996e024146101115780636e8cffa2146101365780638da5cb5b1461015e578063c4e49cd514610189578063eff0f5921461019c57600080fd5b806304d35e30146100985780630ebc8da6146100be5780631b0dce08146100d357806329e999f4146100e6575b600080fd5b6100ab6100a636600461156f565b6101af565b6040519081526020015b60405180910390f35b6100d16100cc36600461167f565b610314565b005b6100ab6100e13660046115e0565b61057c565b6100ab6100f43660046116b1565b600c60209081526000928352604080842090915290825290205481565b61012461011f3660046116b1565b610774565b6040516100b596959493929190611882565b6101496101443660046116b1565b6108d1565b6040516100b599989796959493929190611801565b600854610171906001600160a01b031681565b6040516001600160a01b0390911681526020016100b5565b6100d16101973660046116dc565b6109be565b6101496101aa366004611667565b610d1c565b6000806101bb60065490565b90506101cb600680546001019055565b6040805160c08101825282815260208082018781528284018790526001600160a01b038916606084018190524260808501523360a08501526000868152600a845285812091815290835293909320825181559251805192939261023492600185019201906113f8565b50604082015180516102509160028401916020909101906113f8565b506060828101516003830180546001600160a01b03199081166001600160a01b0393841617909155608080860151600486015560a095860151600590950180549092169490921693909317909255604080518581526020810185905260119481019490945270119b1a59da1d08149959da5cdd195c9959607a1b60c0850152339084018190529083015242908201527f31e053a200c037c2a0f3a83d8e087ea8ca9962fc3f642170571a92abc949a13c9060e00160405180910390a1949350505050565b60008281526005602052604090205482906001600160a01b031633146103925760405162461bcd60e51b815260206004820152602860248201527f536f75726365206d75737420626520746865206f7261636c65206f6620746865604482015267081c995c5d595cdd60c21b60648201526084015b60405180910390fd5b60008181526005602052604080822080546001600160a01b03191690555182917fa40ad10b942505047c532a7399bf5eac2768b11b7155b40ec80309aea567f99891a26000838152600b602090815260408083208151610120810183528154815260018201546001600160a01b031693810193909352600281018054919284019161041c90611a12565b80601f016020809104026020016040519081016040528092919081815260200182805461044890611a12565b80156104955780601f1061046a57610100808354040283529160200191610495565b820191906000526020600020905b81548152906001019060200180831161047857829003601f168201915b505050918352505060038201546020820152600482015460408201526005808301546060830152600683015460809092019160ff16908111156104e857634e487b7160e01b600052602160045260246000fd5b600581111561050757634e487b7160e01b600052602160045260246000fd5b81526007820154602082015260089091015460ff1615156040909101526001610100820152905060c0810183600581111561055257634e487b7160e01b600052602160045260246000fd5b9081600581111561057357634e487b7160e01b600052602160045260246000fd5b90525050505050565b60008061058860075490565b9050610598600780546001019055565b604051806101200160405280828152602001886001600160a01b03168152602001878152602001868152602001858152602001428152602001600160058111156105f257634e487b7160e01b600052602160045260246000fd5b600581111561061157634e487b7160e01b600052602160045260246000fd5b8152602080820186905260006040928301819052848152600982528281206001600160a01b038c811683529083529083902084518155848301516001820180546001600160a01b031916919093161790915591830151805161067992600285019201906113f8565b50606082015181600301556080820151816004015560a0820151816005015560c08201518160060160006101000a81548160ff021916908360058111156106d057634e487b7160e01b600052602160045260246000fd5b021790555060e0828101516007830155610100909201516008909101805460ff19169115159190911790556040805183815260a0602082018190526010908201526f125b9cdd5c985b98d948109bdbdad95960821b60c08201523391810182905260608101919091524260808201527f528441e079e31bf6f9d9a91817469f3269aadfd0e41397f5139151f22d5bb541910160405180910390a19695505050505050565b600a602090815260009283526040808420909152908252902080546001820180549192916107a190611a12565b80601f01602080910402602001604051908101604052809291908181526020018280546107cd90611a12565b801561081a5780601f106107ef5761010080835404028352916020019161081a565b820191906000526020600020905b8154815290600101906020018083116107fd57829003601f168201915b50505050509080600201805461082f90611a12565b80601f016020809104026020016040519081016040528092919081815260200182805461085b90611a12565b80156108a85780601f1061087d576101008083540402835291602001916108a8565b820191906000526020600020905b81548152906001019060200180831161088b57829003601f168201915b505050506003830154600484015460059094015492936001600160a01b03918216939092501686565b600960209081526000928352604080842090915290825290208054600182015460028301805492936001600160a01b039092169261090e90611a12565b80601f016020809104026020016040519081016040528092919081815260200182805461093a90611a12565b80156109875780601f1061095c57610100808354040283529160200191610987565b820191906000526020600020905b81548152906001019060200180831161096a57829003601f168201915b505050600384015460048501546005860154600687015460078801546008909801549697939692955090935060ff90811692911689565b600083815260096020908152604080832033845282528083208151610120810183528154815260018201546001600160a01b0316938101939093526002810180549192840191610a0d90611a12565b80601f0160208091040260200160405190810160405280929190818152602001828054610a3990611a12565b8015610a865780601f10610a5b57610100808354040283529160200191610a86565b820191906000526020600020905b815481529060010190602001808311610a6957829003601f168201915b505050918352505060038201546020820152600482015460408201526005808301546060830152600683015460809092019160ff1690811115610ad957634e487b7160e01b600052602160045260246000fd5b6005811115610af857634e487b7160e01b600052602160045260246000fd5b8152600782015460208083019190915260089092015460ff1615156040909101528101519091506001600160a01b0316610b745760405162461bcd60e51b815260206004820181905260248201527f506f6c69637920486f6c646572204164647265737320697320696e76616c69646044820152606401610389565b61010081015115610bb95760405162461bcd60e51b815260206004820152600f60248201526e105b1c9958591e4818db185a5b5959608a1b6044820152606401610389565b6000610bd5610bc784610d57565b3063075e46d360e11b610d74565b9050610c0d604051806040016040528060058152602001641d5b9d1a5b60da1b815250836080015183610d999092919063ffffffff16565b6000610c21858366038d7ea4c68000610dbc565b6000818152600b602090815260409182902086518155868201516001820180546001600160a01b0319166001600160a01b039092169190911790559186015180519394508693610c7792600285019201906113f8565b50606082015181600301556080820151816004015560a0820151816005015560c08201518160060160006101000a81548160ff02191690836005811115610cce57634e487b7160e01b600052602160045260246000fd5b021790555060e08201516007820155610100909101516008909101805460ff19169115159190911790556000958652600c602090815260408088203389529091529095209490945550505050565b600b6020526000908152604090208054600182015460028301805492936001600160a01b039092169261090e90611a12565b80546001019055565b80516000908290610d6b5750600092915050565b50506020015190565b610d7c61147c565b610d8461147c565b610d9081868686610ddb565b95945050505050565b6080830151610da89083610e18565b6080830151610db79082610e2f565b505050565b6000610dd384848460016320214ca360e11b610e3f565b949350505050565b610de361147c565b610df3856080015161010061104b565b50509183526001600160a01b031660208301526001600160e01b031916604082015290565b610e2582600383516110b6565b610db7828261118a565b610e3b826000836110b6565b5050565b6004546040516bffffffffffffffffffffffff193060601b166020820152603481019190915260009060540160408051808303601f19018152918152815160209283012060045460608901526000818152600590935281832080546001600160a01b0319166001600160a01b038b16179055905190925082917fa6745906207afb96a5801b8e5711fd7b74c5780ce893a973806e179d675bbe2491a2600082600080886000015189602001518a604001518b606001518a8d6080015160000151604051602401610f16989796959493929190611772565b60408051601f198184030181529181526020820180516001600160e01b03166001600160e01b0319909416939093179092526002549151630200057560e51b81529092506001600160a01b0390911690634000aea090610f7e908a90899086906004016117da565b602060405180830381600087803b158015610f9857600080fd5b505af1158015610fac573d6000803e3d6000fd5b505050506040513d601f19601f82011682018060405250810190610fd09190611647565b6110285760405162461bcd60e51b815260206004820152602360248201527f756e61626c6520746f207472616e73666572416e6443616c6c20746f206f7261604482015262636c6560e81b6064820152608401610389565b60016004600082825461103b91906118d9565b9091555091979650505050505050565b60408051808201909152606081526000602082015261106b602083611a47565b156110935761107b602083611a47565b6110869060206119fb565b61109090836118d9565b91505b506020808301829052604080518085526000815283019091019052815b92915050565b601781116110d7576110d18360e0600585901b1683176111b8565b50505050565b60ff8111611101576110f4836018611fe0600586901b16176111b8565b506110d1838260016111dd565b61ffff811161112c5761111f836019611fe0600586901b16176111b8565b506110d1838260026111dd565b63ffffffff81116111595761114c83601a611fe0600586901b16176111b8565b506110d1838260046111dd565b67ffffffffffffffff8111610db75761117d83601b611fe0600586901b16176111b8565b506110d1838260086111dd565b6040805180820190915260608152600060208201526111b183846000015151848551611203565b9392505050565b6040805180820190915260608152600060208201526111b183846000015151846112ed565b604080518082019091526060815260006020820152610dd3848560000151518585611349565b604080518082019091526060815260006020820152825182111561122657600080fd5b602085015161123583866118d9565b111561126857611268856112588760200151878661125391906118d9565b6113ca565b6112639060026119dc565b6113e1565b6000808651805187602083010193508088870111156112875787860182525b505050602084015b602084106112c757805182526112a66020836118d9565b91506112b36020826118d9565b90506112c06020856119fb565b935061128f565b51815160001960208690036101000a019081169019919091161790525083949350505050565b6040805180820190915260608152600060208201528360200151831061132257611322848560200151600261126391906119dc565b83518051602085830101848153508085141561133f576001810182525b5093949350505050565b604080518082019091526060815260006020820152602085015161136d85846118d9565b1115611381576113818561125886856118d9565b6000600161139184610100611934565b61139b91906119fb565b90508551838682010185831982511617815250805184870111156113bf5783860181525b509495945050505050565b6000818311156113db5750816110b0565b50919050565b81516113ed838361104b565b506110d1838261118a565b82805461140490611a12565b90600052602060002090601f016020900481019282611426576000855561146c565b82601f1061143f57805160ff191683800117855561146c565b8280016001018555821561146c579182015b8281111561146c578251825591602001919060010190611451565b506114789291506114b7565b5090565b6040805160a0810182526000808252602080830182905282840182905260608084018390528451808601909552845283015290608082015290565b5b8082111561147857600081556001016114b8565b80356001600160a01b03811681146114e357600080fd5b919050565b600082601f8301126114f8578081fd5b813567ffffffffffffffff8082111561151357611513611a7d565b604051601f8301601f19908116603f0116810190828211818310171561153b5761153b611a7d565b81604052838152866020858801011115611553578485fd5b8360208701602083013792830160200193909352509392505050565b600080600060608486031215611583578283fd5b61158c846114cc565b9250602084013567ffffffffffffffff808211156115a8578384fd5b6115b4878388016114e8565b935060408601359150808211156115c9578283fd5b506115d6868287016114e8565b9150509250925092565b600080600080600060a086880312156115f7578081fd5b611600866114cc565b9450602086013567ffffffffffffffff81111561161b578182fd5b611627888289016114e8565b959895975050505060408401359360608101359360809091013592509050565b600060208284031215611658578081fd5b815180151581146111b1578182fd5b600060208284031215611678578081fd5b5035919050565b60008060408385031215611691578182fd5b823591506020830135600681106116a6578182fd5b809150509250929050565b600080604083850312156116c3578182fd5b823591506116d3602084016114cc565b90509250929050565b6000806000606084860312156116f0578283fd5b83359250611700602085016114cc565b9150604084013567ffffffffffffffff81111561171b578182fd5b6115d6868287016114e8565b60008151808452815b8181101561174c57602081850181015186830182015201611730565b8181111561175d5782602083870101525b50601f01601f19169290920160200192915050565b6001600160a01b0389811682526020820189905260408201889052861660608201526001600160e01b03198516608082015260a0810184905260c0810183905261010060e082018190526000906117cb83820185611727565b9b9a5050505050505050505050565b60018060a01b0384168152826020820152606060408201526000610d906060830184611727565b8981526001600160a01b03891660208201526101206040820181905260009061182c8382018b611727565b9150508760608301528660808301528560a08301526006851061185f57634e487b7160e01b600052602160045260246000fd5b8460c08301528360e08301528215156101008301529a9950505050505050505050565b86815260c06020820152600061189b60c0830188611727565b82810360408401526118ad8188611727565b6001600160a01b03968716606085015260808401959095525050921660a0909201919091529392505050565b600082198211156118ec576118ec611a67565b500190565b600181815b8085111561192c57816000190482111561191257611912611a67565b8085161561191f57918102915b93841c93908002906118f6565b509250929050565b60006111b1838360008261194a575060016110b0565b81611957575060006110b0565b816001811461196d576002811461197757611993565b60019150506110b0565b60ff84111561198857611988611a67565b50506001821b6110b0565b5060208310610133831016604e8410600b84101617156119b6575081810a6110b0565b6119c083836118f1565b80600019048211156119d4576119d4611a67565b029392505050565b60008160001904831182151516156119f6576119f6611a67565b500290565b600082821015611a0d57611a0d611a67565b500390565b600181811c90821680611a2657607f821691505b602082108114156113db57634e487b7160e01b600052602260045260246000fd5b600082611a6257634e487b7160e01b81526012600452602481fd5b500690565b634e487b7160e01b600052601160045260246000fd5b634e487b7160e01b600052604160045260246000fdfea26469706673582212206c5cea079941b846afc59edc2695f99dbaebd5ee1b0feaac2ea446dcad7eb91d64736f6c63430008040033",
  "linkReferences": {},
  "deployedLinkReferences": {}
}