{
  "_format": "hh-sol-artifact-1",
  "contractName": "CustomerContract",
  "sourceName": "contracts/CustomerContract.sol",
  "abi": [
    {
      "inputs": [],
      "stateMutability": "nonpayable",
      "type": "constructor"
    },
    {
      "inputs": [],
      "name": "_counter",
      "outputs": [
        {
          "internalType": "uint256",
          "name": "",
          "type": "uint256"
        }
      ],
      "stateMutability": "view",
      "type": "function"
    },
    {
      "inputs": [
        {
          "internalType": "string",
          "name": "_bookName",
          "type": "string"
        }
      ],
      "name": "addBooks",
      "outputs": [],
      "stateMutability": "nonpayable",
      "type": "function"
    },
    {
      "inputs": [
        {
          "internalType": "uint256",
          "name": "",
          "type": "uint256"
        }
      ],
      "name": "books",
      "outputs": [
        {
          "internalType": "uint256",
          "name": "id",
          "type": "uint256"
        },
        {
          "internalType": "string",
          "name": "bookName",
          "type": "string"
        }
      ],
      "stateMutability": "view",
      "type": "function"
    },
    {
      "inputs": [],
      "name": "getPriceInfo",
      "outputs": [
        {
          "internalType": "bytes32",
          "name": "",
          "type": "bytes32"
        }
      ],
      "stateMutability": "nonpayable",
      "type": "function"
    },
    {
      "inputs": [],
      "name": "requestId",
      "outputs": [
        {
          "internalType": "bytes32",
          "name": "",
          "type": "bytes32"
        }
      ],
      "stateMutability": "view",
      "type": "function"
    },
    {
      "inputs": [],
      "name": "show",
      "outputs": [
        {
          "internalType": "uint256",
          "name": "",
          "type": "uint256"
        }
      ],
      "stateMutability": "view",
      "type": "function"
    }
  ],
  "bytecode": "0x6080604052600080546001600160a01b031916734c50a698f8148b2560eadb50a8397b614dcff6a017905534801561003657600080fd5b5060016002556105618061004b6000396000f3fe608060405234801561001057600080fd5b50600436106100615760003560e01c80626d6cae14610066578063330227bf146100825780633c9d54de1461008a578063687440461461009f5780637cd49fde146100c0578063cc80f6f3146100c9575b600080fd5b61006f60015481565b6040519081526020015b60405180910390f35b61006f6100d1565b61009d610098366004610399565b610159565b005b6100b26100ad366004610443565b6101b7565b60405161007992919061045b565b61006f60025481565b61006f61025c565b60008054604051639dd4cc5d60e01b81523360048201526001600160a01b0390911690639dd4cc5d90602401602060405180830381600087803b15801561011757600080fd5b505af115801561012b573d6000803e3d6000fd5b505050506040513d601f19601f8201168201806040525081019061014f9190610381565b6001819055919050565b604080518082018252600254808252602080830185815260009283526003825293909120825181559251805192939261019892600185019201906102e8565b509050506001600260008282546101af91906104b6565b909155505050565b600360205260009081526040902080546001820180549192916101d9906104da565b80601f0160208091040260200160405190810160405280929190818152602001828054610205906104da565b80156102525780601f1061022757610100808354040283529160200191610252565b820191906000526020600020905b81548152906001019060200180831161023557829003601f168201915b5050505050905082565b60008060009054906101000a90046001600160a01b03166001600160a01b0316638e0e0abb6040518163ffffffff1660e01b815260040160206040518083038186803b1580156102ab57600080fd5b505afa1580156102bf573d6000803e3d6000fd5b505050506040513d601f19601f820116820180604052508101906102e39190610381565b905090565b8280546102f4906104da565b90600052602060002090601f016020900481019282610316576000855561035c565b82601f1061032f57805160ff191683800117855561035c565b8280016001018555821561035c579182015b8281111561035c578251825591602001919060010190610341565b5061036892915061036c565b5090565b5b80821115610368576000815560010161036d565b600060208284031215610392578081fd5b5051919050565b6000602082840312156103aa578081fd5b813567ffffffffffffffff808211156103c1578283fd5b818401915084601f8301126103d4578283fd5b8135818111156103e6576103e6610515565b604051601f8201601f19908116603f0116810190838211818310171561040e5761040e610515565b81604052828152876020848701011115610426578586fd5b826020860160208301379182016020019490945295945050505050565b600060208284031215610454578081fd5b5035919050565b828152600060206040818401528351806040850152825b8181101561048e57858101830151858201606001528201610472565b8181111561049f5783606083870101525b50601f01601f191692909201606001949350505050565b600082198211156104d557634e487b7160e01b81526011600452602481fd5b500190565b600181811c908216806104ee57607f821691505b6020821081141561050f57634e487b7160e01b600052602260045260246000fd5b50919050565b634e487b7160e01b600052604160045260246000fdfea26469706673582212203b1c3f92600bc7dfaa3e30786a8adec032fede459692a7d45abb9a03f484dc5b64736f6c63430008040033",
  "linkReferences": {},
  "deployedLinkReferences": {}
}