{
  "_format": "hh-sol-artifact-1",
  "contractName": "XSynProtocol",
  "sourceName": "contracts/XSynProtocol.sol",
  "abi": [
    {
      "inputs": [],
      "stateMutability": "nonpayable",
      "type": "constructor"
    },
    {
      "anonymous": false,
      "inputs": [
        {
          "indexed": false,
          "internalType": "string",
          "name": "name",
          "type": "string"
        },
        {
          "indexed": false,
          "internalType": "address",
          "name": "destination",
          "type": "address"
        }
      ],
      "name": "CacheUpdated",
      "type": "event"
    },
    {
      "anonymous": false,
      "inputs": [
        {
          "indexed": false,
          "internalType": "uint256",
          "name": "amount",
          "type": "uint256"
        }
      ],
      "name": "MinimumDepositAmountUpdated",
      "type": "event"
    },
    {
      "inputs": [],
      "name": "CONTRACTNAME",
      "outputs": [
        {
          "internalType": "string",
          "name": "",
          "type": "string"
        }
      ],
      "stateMutability": "view",
      "type": "function"
    },
    {
      "inputs": [],
      "name": "CONTRACT_NAME",
      "outputs": [
        {
          "internalType": "string",
          "name": "",
          "type": "string"
        }
      ],
      "stateMutability": "view",
      "type": "function"
    },
    {
      "inputs": [],
      "name": "_owner",
      "outputs": [
        {
          "internalType": "address",
          "name": "",
          "type": "address"
        }
      ],
      "stateMutability": "view",
      "type": "function"
    },
    {
      "inputs": [
        {
          "internalType": "string",
          "name": "",
          "type": "string"
        }
      ],
      "name": "addressCache",
      "outputs": [
        {
          "internalType": "address",
          "name": "",
          "type": "address"
        }
      ],
      "stateMutability": "view",
      "type": "function"
    },
    {
      "inputs": [],
      "name": "contractOwner",
      "outputs": [
        {
          "internalType": "address",
          "name": "",
          "type": "address"
        }
      ],
      "stateMutability": "view",
      "type": "function"
    },
    {
      "inputs": [
        {
          "internalType": "address",
          "name": "",
          "type": "address"
        }
      ],
      "name": "deposits",
      "outputs": [
        {
          "internalType": "address payable",
          "name": "user",
          "type": "address"
        },
        {
          "internalType": "uint256",
          "name": "xdcDeposit",
          "type": "uint256"
        },
        {
          "internalType": "uint256",
          "name": "pliDeposit",
          "type": "uint256"
        },
        {
          "internalType": "enum Constants.TokenType",
          "name": "tok",
          "type": "uint8"
        }
      ],
      "stateMutability": "view",
      "type": "function"
    },
    {
      "inputs": [],
      "name": "minimumPLIDepositAmount",
      "outputs": [
        {
          "internalType": "uint256",
          "name": "",
          "type": "uint256"
        }
      ],
      "stateMutability": "view",
      "type": "function"
    },
    {
      "inputs": [],
      "name": "minimumXDCDepositAmount",
      "outputs": [
        {
          "internalType": "uint256",
          "name": "",
          "type": "uint256"
        }
      ],
      "stateMutability": "view",
      "type": "function"
    },
    {
      "inputs": [
        {
          "internalType": "address",
          "name": "",
          "type": "address"
        }
      ],
      "name": "mintr",
      "outputs": [
        {
          "internalType": "uint256",
          "name": "",
          "type": "uint256"
        }
      ],
      "stateMutability": "view",
      "type": "function"
    },
    {
      "inputs": [
        {
          "internalType": "uint256",
          "name": "_pliVal",
          "type": "uint256"
        }
      ],
      "name": "mintxdUSDForPLI",
      "outputs": [
        {
          "internalType": "uint256",
          "name": "",
          "type": "uint256"
        }
      ],
      "stateMutability": "payable",
      "type": "function"
    },
    {
      "inputs": [],
      "name": "mintxdUSDForXDC",
      "outputs": [
        {
          "internalType": "uint256",
          "name": "",
          "type": "uint256"
        }
      ],
      "stateMutability": "payable",
      "type": "function"
    },
    {
      "inputs": [
        {
          "internalType": "uint256",
          "name": "_minDeposit",
          "type": "uint256"
        }
      ],
      "name": "setMinDepositForPLI",
      "outputs": [],
      "stateMutability": "nonpayable",
      "type": "function"
    },
    {
      "inputs": [
        {
          "internalType": "uint256",
          "name": "_minDeposit",
          "type": "uint256"
        }
      ],
      "name": "setMinDepositForXDC",
      "outputs": [],
      "stateMutability": "nonpayable",
      "type": "function"
    },
    {
      "inputs": [
        {
          "internalType": "string",
          "name": "_name",
          "type": "string"
        },
        {
          "internalType": "address",
          "name": "_destination",
          "type": "address"
        }
      ],
      "name": "updateCache",
      "outputs": [],
      "stateMutability": "nonpayable",
      "type": "function"
    },
    {
      "stateMutability": "payable",
      "type": "receive"
    }
  ],
  "bytecode": "0x60806040819052630241ebdb60e61b815273__$62ad3b859263eea2f18e8dce157c4af92c$__9063907af6c09060849060209060048186803b1580156200004557600080fd5b505af41580156200005a573d6000803e3d6000fd5b505050506040513d601f19601f8201168201806040525081019062000080919062000158565b6200008e906107d062000171565b60045573__$62ad3b859263eea2f18e8dce157c4af92c$__63907af6c06040518163ffffffff1660e01b815260040160206040518083038186803b158015620000d657600080fd5b505af4158015620000eb573d6000803e3d6000fd5b505050506040513d601f19601f8201168201806040525081019062000111919062000158565b6200011f906102bc62000171565b6005553480156200012f57600080fd5b5060018054336001600160a01b031991821681179092556003805490911690911790556200019d565b6000602082840312156200016a578081fd5b5051919050565b60008160001904831182151516156200019857634e487b7160e01b81526011600452602481fd5b500290565b61129d80620001ad6000396000f3fe6080604052600436106100e15760003560e01c8063b2bdfa7b1161007f578063e52346d011610059578063e52346d014610275578063f187574414610295578063fc6f4c1b146102cd578063fc7e286d146102ed57600080fd5b8063b2bdfa7b14610208578063ce606ee014610228578063d6ea7b3b1461024857600080fd5b80635f230a61116100bb5780635f230a611461013f578063614d08f81461016157806383e10787146101a7578063a4b19d01146101af57600080fd5b8063056c5aa9146100ed5780633b6fba1a146101165780635afdab9f1461012c57600080fd5b366100e857005b600080fd5b3480156100f957600080fd5b5061010360045481565b6040519081526020015b60405180910390f35b34801561012257600080fd5b5061010360055481565b61010361013a366004610e88565b61034c565b34801561014b57600080fd5b5061015f61015a366004610e88565b6104a5565b005b34801561016d57600080fd5b5061019a6040518060400160405280600d81526020016c26b4bc34b72932b9b7b63b32b960991b81525081565b60405161010d9190610f6c565b6101036104e1565b3480156101bb57600080fd5b506101f06101ca366004610e09565b80516020818301810180516000825292820191909301209152546001600160a01b031681565b6040516001600160a01b03909116815260200161010d565b34801561021457600080fd5b506001546101f0906001600160a01b031681565b34801561023457600080fd5b506003546101f0906001600160a01b031681565b34801561025457600080fd5b50610103610263366004610db7565b60026020526000908152604090205481565b34801561028157600080fd5b5061015f610290366004610e88565b61062f565b3480156102a157600080fd5b5061019a6040518060400160405280600c81526020016b1614de5b941c9bdd1bd8dbdb60a21b81525081565b3480156102d957600080fd5b5061015f6102e8366004610e3c565b610664565b3480156102f957600080fd5b5061033c610308366004610db7565b60066020526000908152604090208054600182015460028301546003909301546001600160a01b0390921692909160ff1684565b60405161010d9493929190610f21565b60006005548210156103795760405162461bcd60e51b815260040161037090610fa9565b60405180910390fd5b60006103836106e0565b6001600160a01b031663d7a356be6040518163ffffffff1660e01b81526004016103ac90611039565b602060405180830381600087803b1580156103c657600080fd5b505af11580156103da573d6000803e3d6000fd5b505050506040513d601f19601f820116820180604052508101906103fe9190610df1565b9050600061049161040d6106e0565b6001600160a01b031663dd953fb0846040518263ffffffff1660e01b815260040161043a91815260200190565b60206040518083038186803b15801561045257600080fd5b505afa158015610466573d6000803e3d6000fd5b505050506040513d601f19601f8201168201806040525081019061048a9190610df1565b8590610714565b905061049d818561073f565b949350505050565b60058190556040518181527fa39eacd162ee82c70b2b030a1bc8fe89adcccc61122fad4821a8772dbcc54267906020015b60405180910390a150565b60006004543410156105055760405162461bcd60e51b815260040161037090611077565b600061050f6106e0565b6001600160a01b031663d7a356be6040518163ffffffff1660e01b815260040161053890610ffb565b602060405180830381600087803b15801561055257600080fd5b505af1158015610566573d6000803e3d6000fd5b505050506040513d601f19601f8201168201806040525081019061058a9190610df1565b9050600061061d6105996106e0565b6001600160a01b031663dd953fb0846040518263ffffffff1660e01b81526004016105c691815260200190565b60206040518083038186803b1580156105de57600080fd5b505afa1580156105f2573d6000803e3d6000fd5b505050506040513d601f19601f820116820180604052508101906106169190610df1565b3490610714565b905061062881610944565b9250505090565b60048190556040518181527fa39eacd162ee82c70b2b030a1bc8fe89adcccc61122fad4821a8772dbcc54267906020016104d6565b806000836040516106759190610ecc565b90815260405190819003602001812080546001600160a01b03939093166001600160a01b0319909316929092179091557f0f721ab865154f222f0053098fb6752276624e5310bcb2bb9269d205ece331d5906106d49084908490610f7f565b60405180910390a15050565b600061070f6040518060400160405280600c81526020016b45584348414e47455241544560a01b815250610b9b565b905090565b60006107226012600a611144565b61072c8484610c0e565b61073691906110e1565b90505b92915050565b60006005548210156107635760405162461bcd60e51b815260040161037090610fa9565b336000908152600660209081526040808320815160808101835281546001600160a01b0316815260018083015494820194909452600282015492810192909252600381015491929091606084019160ff909116908111156107d457634e487b7160e01b600052602160045260246000fd5b60018111156107f357634e487b7160e01b600052602160045260246000fd5b905250604081015190915060009061080b9085610c8d565b6040805160808101825284516001600160a01b039081168252602080870151818401908152838501868152600160608601818152336000908152600690955296909320855181546001600160a01b031916951694909417845590518383015551600283015592516003820180549596509294919390929160ff19169083818111156108a657634e487b7160e01b600052602160045260246000fd5b02179055509050506108b6610cec565b6040516340c10f1960e01b8152336004820152602481018790526001600160a01b0391909116906340c10f1990604401602060405180830381600087803b15801561090057600080fd5b505af1158015610914573d6000803e3d6000fd5b505050506040513d601f19601f820116820180604052508101906109389190610dd1565b50600195945050505050565b60006004543410156109685760405162461bcd60e51b815260040161037090611077565b336000908152600660209081526040808320815160808101835281546001600160a01b0316815260018083015494820194909452600282015492810192909252600381015491929091606084019160ff909116908111156109d957634e487b7160e01b600052602160045260246000fd5b60018111156109f857634e487b7160e01b600052602160045260246000fd5b9052506020810151909150600090610a109034610c8d565b9050604051806080016040528083600001516001600160a01b031681526020018281526020018360400151815260200160006001811115610a6157634e487b7160e01b600052602160045260246000fd5b6001811115610a8057634e487b7160e01b600052602160045260246000fd5b905233600090815260066020908152604091829020835181546001600160a01b0319166001600160a01b0390911617815590830151600180830191909155918301516002820155606083015160038201805492939192909160ff19909116908381811115610afe57634e487b7160e01b600052602160045260246000fd5b0217905550905050610b0e610cec565b6040516340c10f1960e01b8152336004820152602481018690526001600160a01b0391909116906340c10f1990604401602060405180830381600087803b158015610b5857600080fd5b505af1158015610b6c573d6000803e3d6000fd5b505050506040513d601f19601f82011682018060405250810190610b909190610dd1565b506001949350505050565b600080600083604051610bae9190610ecc565b90815260405160209181900382018120546001600160a01b0316925082151591610bda91869101610ee8565b60405160208183030381529060405290610c075760405162461bcd60e51b81526004016103709190610f6c565b5092915050565b600082610c1d57506000610739565b6000610c2983856111ec565b905082610c3685836110e1565b146107365760405162461bcd60e51b815260206004820152602160248201527f536166654d6174683a206d756c7469706c69636174696f6e206f766572666c6f6044820152607760f81b6064820152608401610370565b600080610c9a83856110c9565b9050838110156107365760405162461bcd60e51b815260206004820152601b60248201527f536166654d6174683a206164646974696f6e206f766572666c6f7700000000006044820152606401610370565b600061070f6040518060400160405280600581526020016416111554d160da1b815250610b9b565b80356001600160a01b0381168114610d2b57600080fd5b919050565b600082601f830112610d40578081fd5b813567ffffffffffffffff80821115610d5b57610d5b611251565b604051601f8301601f19908116603f01168101908282118183101715610d8357610d83611251565b81604052838152866020858801011115610d9b578485fd5b8360208701602083013792830160200193909352509392505050565b600060208284031215610dc8578081fd5b61073682610d14565b600060208284031215610de2578081fd5b81518015158114610736578182fd5b600060208284031215610e02578081fd5b5051919050565b600060208284031215610e1a578081fd5b813567ffffffffffffffff811115610e30578182fd5b61049d84828501610d30565b60008060408385031215610e4e578081fd5b823567ffffffffffffffff811115610e64578182fd5b610e7085828601610d30565b925050610e7f60208401610d14565b90509250929050565b600060208284031215610e99578081fd5b5035919050565b60008151808452610eb881602086016020860161120b565b601f01601f19169290920160200192915050565b60008251610ede81846020870161120b565b9190910192915050565b70026b4b9b9b4b7339030b2323932b9b99d1607d1b815260008251610f1481601185016020870161120b565b9190910160110192915050565b6001600160a01b038516815260208101849052604081018390526080810160028310610f5d57634e487b7160e01b600052602160045260246000fd5b82606083015295945050505050565b6020815260006107366020830184610ea0565b604081526000610f926040830185610ea0565b905060018060a01b03831660208301529392505050565b60208082526032908201527f504c4920616d6f756e742053686f756c64206265206d696e696d756d504c4944604082015271195c1bdcda5d105b5bdd5b9d081b1a5b5a5d60721b606082015260800190565b60408152600360408201526258444360e81b60608201526080602082015260006107396080830160048152631554d11560e21b602082015260400190565b604081526003604082015262504c4960e81b60608201526080602082015260006107396080830160048152631554d11560e21b602082015260400190565b60208082526032908201527f58444320616d6f756e742053686f756c64206265206d696e696d756d58444344604082015271195c1bdcda5d105b5bdd5b9d081b1a5b5a5d60721b606082015260800190565b600082198211156110dc576110dc61123b565b500190565b6000826110fc57634e487b7160e01b81526012600452602481fd5b500490565b600181815b8085111561113c5781600019048211156111225761112261123b565b8085161561112f57918102915b93841c9390800290611106565b509250929050565b6000610736838360008261115a57506001610739565b8161116757506000610739565b816001811461117d5760028114611187576111a3565b6001915050610739565b60ff8411156111985761119861123b565b50506001821b610739565b5060208310610133831016604e8410600b84101617156111c6575081810a610739565b6111d08383611101565b80600019048211156111e4576111e461123b565b029392505050565b60008160001904831182151516156112065761120661123b565b500290565b60005b8381101561122657818101518382015260200161120e565b83811115611235576000848401525b50505050565b634e487b7160e01b600052601160045260246000fd5b634e487b7160e01b600052604160045260246000fdfea26469706673582212204cd566e1aeb9fc022722d476074196db13cad094c538e4cda4ecac2b72ee41f764736f6c63430008040033",
  "linkReferences": {
    "contracts/utils/SafeDecimalMath.sol": {
      "SafeDecimalMath": [
        {
          "length": 20,
          "start": 18
        },
        {
          "length": 20,
          "start": 147
        }
      ]
    }
  },
  "deployedLinkReferences": {}
}