{
  "_format": "hh-sol-artifact-1",
  "contractName": "MixinResolver",
  "sourceName": "contracts/MixinResolver.sol",
  "abi": [
    {
      "inputs": [],
      "stateMutability": "nonpayable",
      "type": "constructor"
    },
    {
      "anonymous": false,
      "inputs": [
        {
          "indexed": false,
          "internalType": "string",
          "name": "name",
          "type": "string"
        },
        {
          "indexed": false,
          "internalType": "address",
          "name": "destination",
          "type": "address"
        }
      ],
      "name": "CacheUpdated",
      "type": "event"
    },
    {
      "inputs": [],
      "name": "CONTRACT_NAME",
      "outputs": [
        {
          "internalType": "string",
          "name": "",
          "type": "string"
        }
      ],
      "stateMutability": "view",
      "type": "function"
    },
    {
      "inputs": [],
      "name": "_owner",
      "outputs": [
        {
          "internalType": "address",
          "name": "",
          "type": "address"
        }
      ],
      "stateMutability": "view",
      "type": "function"
    },
    {
      "inputs": [
        {
          "internalType": "string",
          "name": "",
          "type": "string"
        }
      ],
      "name": "addressCache",
      "outputs": [
        {
          "internalType": "address",
          "name": "",
          "type": "address"
        }
      ],
      "stateMutability": "view",
      "type": "function"
    },
    {
      "inputs": [
        {
          "internalType": "string",
          "name": "_name",
          "type": "string"
        },
        {
          "internalType": "address",
          "name": "_destination",
          "type": "address"
        }
      ],
      "name": "updateCache",
      "outputs": [],
      "stateMutability": "nonpayable",
      "type": "function"
    }
  ],
  "bytecode": "0x608060405234801561001057600080fd5b50600180546001600160a01b031916331790556103a8806100326000396000f3fe608060405234801561001057600080fd5b506004361061004c5760003560e01c8063614d08f814610051578063a4b19d0114610093578063b2bdfa7b146100df578063fc6f4c1b146100f2575b600080fd5b61007d6040518060400160405280600d81526020016c26b4bc34b72932b9b7b63b32b960991b81525081565b60405161008a91906102e8565b60405180910390f35b6100c76100a136600461020a565b80516020818301810180516000825292820191909301209152546001600160a01b031681565b6040516001600160a01b03909116815260200161008a565b6001546100c7906001600160a01b031681565b610105610100366004610245565b610107565b005b8060008360405161011891906102cc565b90815260405190819003602001812080546001600160a01b03939093166001600160a01b0319909316929092179091557f0f721ab865154f222f0053098fb6752276624e5310bcb2bb9269d205ece331d5906101779084908490610302565b60405180910390a15050565b600082601f830112610193578081fd5b813567ffffffffffffffff808211156101ae576101ae61035c565b604051601f8301601f19908116603f011681019082821181831017156101d6576101d661035c565b816040528381528660208588010111156101ee578485fd5b8360208701602083013792830160200193909352509392505050565b60006020828403121561021b578081fd5b813567ffffffffffffffff811115610231578182fd5b61023d84828501610183565b949350505050565b60008060408385031215610257578081fd5b823567ffffffffffffffff81111561026d578182fd5b61027985828601610183565b92505060208301356001600160a01b0381168114610295578182fd5b809150509250929050565b600081518084526102b881602086016020860161032c565b601f01601f19169290920160200192915050565b600082516102de81846020870161032c565b9190910192915050565b6020815260006102fb60208301846102a0565b9392505050565b60408152600061031560408301856102a0565b905060018060a01b03831660208301529392505050565b60005b8381101561034757818101518382015260200161032f565b83811115610356576000848401525b50505050565b634e487b7160e01b600052604160045260246000fdfea26469706673582212207a8682b1dcf0ac03826dfcad2ff681b59809b240ec484d3336f681093c07d96464736f6c63430008040033",
  "linkReferences": {},
  "deployedLinkReferences": {}
}