{
  "_format": "hh-sol-artifact-1",
  "contractName": "ExchangeRate",
  "sourceName": "contracts/ExchangeRate.sol",
  "abi": [
    {
      "inputs": [
        {
          "internalType": "address",
          "name": "_pli",
          "type": "address"
        },
        {
          "internalType": "address",
          "name": "_oracle",
          "type": "address"
        },
        {
          "internalType": "string",
          "name": "_jobid",
          "type": "string"
        }
      ],
      "stateMutability": "nonpayable",
      "type": "constructor"
    },
    {
      "anonymous": false,
      "inputs": [
        {
          "indexed": true,
          "internalType": "bytes32",
          "name": "id",
          "type": "bytes32"
        }
      ],
      "name": "PluginCancelled",
      "type": "event"
    },
    {
      "anonymous": false,
      "inputs": [
        {
          "indexed": true,
          "internalType": "bytes32",
          "name": "id",
          "type": "bytes32"
        }
      ],
      "name": "PluginFulfilled",
      "type": "event"
    },
    {
      "anonymous": false,
      "inputs": [
        {
          "indexed": true,
          "internalType": "bytes32",
          "name": "id",
          "type": "bytes32"
        }
      ],
      "name": "PluginRequested",
      "type": "event"
    },
    {
      "anonymous": false,
      "inputs": [
        {
          "indexed": true,
          "internalType": "bytes32",
          "name": "requestId",
          "type": "bytes32"
        },
        {
          "indexed": true,
          "internalType": "uint256",
          "name": "currentVal",
          "type": "uint256"
        }
      ],
      "name": "RequestFulfilled",
      "type": "event"
    },
    {
      "anonymous": false,
      "inputs": [
        {
          "indexed": true,
          "internalType": "address",
          "name": "requester",
          "type": "address"
        },
        {
          "indexed": true,
          "internalType": "bytes32",
          "name": "jobId",
          "type": "bytes32"
        },
        {
          "indexed": true,
          "internalType": "bytes32",
          "name": "requestId",
          "type": "bytes32"
        }
      ],
      "name": "requestCreated",
      "type": "event"
    },
    {
      "anonymous": false,
      "inputs": [
        {
          "indexed": true,
          "internalType": "bytes32",
          "name": "jobId",
          "type": "bytes32"
        },
        {
          "indexed": true,
          "internalType": "bytes32",
          "name": "requestId",
          "type": "bytes32"
        }
      ],
      "name": "requestCreatedTest",
      "type": "event"
    },
    {
      "inputs": [],
      "name": "CONTRACT_NAME",
      "outputs": [
        {
          "internalType": "string",
          "name": "",
          "type": "string"
        }
      ],
      "stateMutability": "view",
      "type": "function"
    },
    {
      "inputs": [
        {
          "internalType": "bytes32",
          "name": "_requestId",
          "type": "bytes32"
        },
        {
          "internalType": "uint256",
          "name": "_payment",
          "type": "uint256"
        },
        {
          "internalType": "bytes4",
          "name": "_callbackFunctionId",
          "type": "bytes4"
        },
        {
          "internalType": "uint256",
          "name": "_expiration",
          "type": "uint256"
        }
      ],
      "name": "cancelRequest",
      "outputs": [],
      "stateMutability": "nonpayable",
      "type": "function"
    },
    {
      "inputs": [],
      "name": "currentValue",
      "outputs": [
        {
          "internalType": "uint256",
          "name": "",
          "type": "uint256"
        }
      ],
      "stateMutability": "view",
      "type": "function"
    },
    {
      "inputs": [
        {
          "internalType": "bytes32",
          "name": "_requestId",
          "type": "bytes32"
        },
        {
          "internalType": "uint256",
          "name": "_currentval",
          "type": "uint256"
        }
      ],
      "name": "fulfill",
      "outputs": [],
      "stateMutability": "nonpayable",
      "type": "function"
    },
    {
      "inputs": [],
      "name": "getPluginToken",
      "outputs": [
        {
          "internalType": "address",
          "name": "",
          "type": "address"
        }
      ],
      "stateMutability": "view",
      "type": "function"
    },
    {
      "inputs": [],
      "name": "jobId",
      "outputs": [
        {
          "internalType": "string",
          "name": "",
          "type": "string"
        }
      ],
      "stateMutability": "view",
      "type": "function"
    },
    {
      "inputs": [],
      "name": "latestTimestamp",
      "outputs": [
        {
          "internalType": "uint256",
          "name": "",
          "type": "uint256"
        }
      ],
      "stateMutability": "view",
      "type": "function"
    },
    {
      "inputs": [
        {
          "internalType": "bytes32",
          "name": "",
          "type": "bytes32"
        }
      ],
      "name": "markets",
      "outputs": [
        {
          "internalType": "bytes32",
          "name": "reqid",
          "type": "bytes32"
        },
        {
          "internalType": "uint256",
          "name": "price",
          "type": "uint256"
        },
        {
          "internalType": "string",
          "name": "fSymbol",
          "type": "string"
        },
        {
          "internalType": "uint256",
          "name": "updatedOn",
          "type": "uint256"
        }
      ],
      "stateMutability": "view",
      "type": "function"
    },
    {
      "inputs": [],
      "name": "oracle",
      "outputs": [
        {
          "internalType": "address",
          "name": "",
          "type": "address"
        }
      ],
      "stateMutability": "view",
      "type": "function"
    },
    {
      "inputs": [
        {
          "internalType": "string",
          "name": "_fSymbol",
          "type": "string"
        },
        {
          "internalType": "string",
          "name": "_tSymbol",
          "type": "string"
        }
      ],
      "name": "requestData",
      "outputs": [
        {
          "internalType": "bytes32",
          "name": "",
          "type": "bytes32"
        }
      ],
      "stateMutability": "nonpayable",
      "type": "function"
    },
    {
      "inputs": [
        {
          "internalType": "bytes32",
          "name": "_reqId",
          "type": "bytes32"
        }
      ],
      "name": "showPrice",
      "outputs": [
        {
          "internalType": "uint256",
          "name": "",
          "type": "uint256"
        }
      ],
      "stateMutability": "view",
      "type": "function"
    },
    {
      "inputs": [],
      "name": "withdrawPli",
      "outputs": [],
      "stateMutability": "nonpayable",
      "type": "function"
    }
  ],
  "bytecode": "0x608060405260016004553480156200001657600080fd5b506040516200182738038062001827833981016040819052620000399162000151565b600280546001600160a01b0319166001600160a01b038516179055600680546001600160a01b0319166001600160a01b0384161790558051620000849060079060208401906200008e565b50505050620002a2565b8280546200009c906200024f565b90600052602060002090601f016020900481019282620000c057600085556200010b565b82601f10620000db57805160ff19168380011785556200010b565b828001600101855582156200010b579182015b828111156200010b578251825591602001919060010190620000ee565b50620001199291506200011d565b5090565b5b808211156200011957600081556001016200011e565b80516001600160a01b03811681146200014c57600080fd5b919050565b60008060006060848603121562000166578283fd5b620001718462000134565b925060206200018281860162000134565b60408601519093506001600160401b03808211156200019f578384fd5b818701915087601f830112620001b3578384fd5b815181811115620001c857620001c86200028c565b604051601f8201601f19908116603f01168101908382118183101715620001f357620001f36200028c565b816040528281528a868487010111156200020b578687fd5b8693505b828410156200022e57848401860151818501870152928501926200020f565b828411156200023f57868684830101525b8096505050505050509250925092565b600181811c908216806200026457607f821691505b602082108114156200028657634e487b7160e01b600052602260045260246000fd5b50919050565b634e487b7160e01b600052604160045260246000fd5b61157580620002b26000396000f3fe608060405234801561001057600080fd5b50600436106100b45760003560e01c80638205bf6a116100715780638205bf6a1461017c578063a4b6f67e14610185578063c2939d971461018d578063d7a356be14610195578063dd953fb0146101a8578063ec65d0f8146101cb57600080fd5b806337fccd30146100b95780634357855e146100c3578063614d08f8146100d6578063698996f8146101175780637564912b1461012e5780637dc0d1d014610151575b600080fd5b6100c16101de565b005b6100c16100d1366004611145565b61033d565b6101016040518060400160405280600c81526020016b45584348414e47455241544560a01b81525081565b60405161010e9190611333565b60405180910390f35b61012060085481565b60405190815260200161010e565b61014161013c36600461112d565b610441565b60405161010e9493929190611303565b600654610164906001600160a01b031681565b6040516001600160a01b03909116815260200161010e565b61012060095481565b6101646104f2565b61010161050b565b6101206101a33660046111b0565b610599565b6101206101b636600461112d565b6000908152600a602052604090206001015490565b6100c16101d9366004611166565b610755565b60006101f26002546001600160a01b031690565b6040516370a0823160e01b81523060048201529091506001600160a01b0382169063a9059cbb90339083906370a082319060240160206040518083038186803b15801561023e57600080fd5b505afa158015610252573d6000803e3d6000fd5b505050506040513d601f19601f820116820180604052508101906102769190611211565b6040516001600160e01b031960e085901b1681526001600160a01b0390921660048301526024820152604401602060405180830381600087803b1580156102bc57600080fd5b505af11580156102d0573d6000803e3d6000fd5b505050506040513d601f19601f820116820180604052508101906102f4919061110d565b61033a5760405162461bcd60e51b81526020600482015260126024820152712ab730b13632903a37903a3930b739b332b960711b60448201526064015b60405180910390fd5b50565b60008281526005602052604090205482906001600160a01b031633146103b65760405162461bcd60e51b815260206004820152602860248201527f536f75726365206d75737420626520746865206f7261636c65206f6620746865604482015267081c995c5d595cdd60c21b6064820152608401610331565b60008181526005602052604080822080546001600160a01b03191690555182917fa40ad10b942505047c532a7399bf5eac2768b11b7155b40ec80309aea567f99891a26000838152600a6020526040808220600101849055600884905551839185917f1ca8663227a7fe9919713a01d344afbb434e234f35a3e540a6ad924f88771f389190a3505050565b600a6020526000908152604090208054600182015460028301805492939192610469906114be565b80601f0160208091040260200160405190810160405280929190818152602001828054610495906114be565b80156104e25780601f106104b7576101008083540402835291602001916104e2565b820191906000526020600020905b8154815290600101906020018083116104c557829003601f168201915b5050505050908060030154905084565b60006105066002546001600160a01b031690565b905090565b60078054610518906114be565b80601f0160208091040260200160405190810160405280929190818152602001828054610544906114be565b80156105915780601f1061056657610100808354040283529160200191610591565b820191906000526020600020905b81548152906001019060200180831161057457829003601f168201915b505050505081565b600080610640610632600780546105af906114be565b80601f01602080910402602001604051908101604052809291908181526020018280546105db906114be565b80156106285780601f106105fd57610100808354040283529160200191610628565b820191906000526020600020905b81548152906001019060200180831161060b57829003601f168201915b5050505050610767565b306321abc2af60e11b610784565b6040805180820190915260068152655f6673796d7360d01b602082015290915061066c908290866107a9565b6040805180820190915260068152655f7473796d7360d01b6020820152610695908290856107a9565b60408051808201909152600581526474696d657360d81b60208201526106bf9082906127106107cc565b6006546000906106df906001600160a01b031683655af3107a40006107ea565b42600981905560408051608081018252838152600060208083018281528385018c81526060850196909652868352600a8252939091208251815592516001840155925180519495509093919261073d92600285019290910190610fb2565b50606091909101516003909101559150505b92915050565b61076184848484610809565b50505050565b8051600090829061077b5750600092915050565b50506020015190565b61078c611036565b610794611036565b6107a0818686866108db565b95945050505050565b60808301516107b89083610918565b60808301516107c79082610918565b505050565b60808301516107db9083610918565b60808301516107c7908261092f565b600061080184848460016320214ca360e11b610993565b949350505050565b60008481526005602052604080822080546001600160a01b0319811690915590516001600160a01b039091169186917f715822738dad692e521ebc0193d189bf23153eb1d4420173d6b30cd8add9f9a69190a2604051636ee4d55360e01b815260048101869052602481018590526001600160e01b031984166044820152606481018390526001600160a01b03821690636ee4d55390608401600060405180830381600087803b1580156108bc57600080fd5b505af11580156108d0573d6000803e3d6000fd5b505050505050505050565b6108e3611036565b6108f38560800151610100610b9f565b50509183526001600160a01b031660208301526001600160e01b031916604082015290565b6109258260038351610c04565b6107c78282610cd2565b67ffffffffffffffff1981121561094e5761094a8282610d00565b5050565b67ffffffffffffffff8113156109685761094a8282610d42565b6000811261097c5761094a82600083610c04565b61094a82600161098e84600019611468565b610c04565b6004546040516bffffffffffffffffffffffff193060601b166020820152603481019190915260009060540160408051808303601f19018152918152815160209283012060045460608901526000818152600590935281832080546001600160a01b0319166001600160a01b038b16179055905190925082917fa6745906207afb96a5801b8e5711fd7b74c5780ce893a973806e179d675bbe2491a2600082600080886000015189602001518a604001518b606001518a8d6080015160000151604051602401610a6a989796959493929190611274565b60408051601f198184030181529181526020820180516001600160e01b03166001600160e01b0319909416939093179092526002549151630200057560e51b81529092506001600160a01b0390911690634000aea090610ad2908a90899086906004016112dc565b602060405180830381600087803b158015610aec57600080fd5b505af1158015610b00573d6000803e3d6000fd5b505050506040513d601f19601f82011682018060405250810190610b24919061110d565b610b7c5760405162461bcd60e51b815260206004820152602360248201527f756e61626c6520746f207472616e73666572416e6443616c6c20746f206f7261604482015262636c6560e81b6064820152608401610331565b600160046000828254610b8f9190611346565b9091555091979650505050505050565b604080518082019091526060815260006020820152610bbf6020836114f3565b15610be757610bcf6020836114f3565b610bda9060206114a7565b610be49083611346565b91505b506020828101829052604080518085526000815290920101905290565b60178111610c1f576107618360e0600585901b168317610d65565b60ff8111610c4957610c3c836018611fe0600586901b1617610d65565b5061076183826001610d8a565b61ffff8111610c7457610c67836019611fe0600586901b1617610d65565b5061076183826002610d8a565b63ffffffff8111610ca157610c9483601a611fe0600586901b1617610d65565b5061076183826004610d8a565b67ffffffffffffffff81116107c757610cc583601b611fe0600586901b1617610d65565b5061076183826008610d8a565b604080518082019091526060815260006020820152610cf983846000015151848551610db0565b9392505050565b610d0b8260c3610d65565b5061094a82610d1c83600019611468565b604051602001610d2e91815260200190565b604051602081830303815290604052610e9a565b610d4d8260c2610d65565b5061094a8282604051602001610d2e91815260200190565b604080518082019091526060815260006020820152610cf98384600001515184610ea7565b604080518082019091526060815260006020820152610801848560000151518585610f03565b6040805180820190915260608152600060208201528251821115610dd357600080fd5b6020850151610de28386611346565b1115610e1557610e1585610e0587602001518786610e009190611346565b610f84565b610e10906002611449565b610f9b565b600080865180518760208301019350808887011115610e345787860182525b505050602084015b60208410610e745780518252610e53602083611346565b9150610e60602082611346565b9050610e6d6020856114a7565b9350610e3c565b51815160001960208690036101000a019081169019919091161790525083949350505050565b6109258260028351610c04565b60408051808201909152606081526000602082015283602001518310610edc57610edc8485602001516002610e109190611449565b835180516020858301018481535080851415610ef9576001810182525b5093949350505050565b6040805180820190915260608152600060208201526020850151610f278584611346565b1115610f3b57610f3b85610e058685611346565b60006001610f4b846101006113a1565b610f5591906114a7565b9050855183868201018583198251161781525080518487011115610f795783860181525b509495945050505050565b600081831115610f9557508161074f565b50919050565b8151610fa78383610b9f565b506107618382610cd2565b828054610fbe906114be565b90600052602060002090601f016020900481019282610fe05760008555611026565b82601f10610ff957805160ff1916838001178555611026565b82800160010185558215611026579182015b8281111561102657825182559160200191906001019061100b565b50611032929150611071565b5090565b6040805160a0810182526000808252602080830182905282840182905260608084018390528451808601909552845283015290608082015290565b5b808211156110325760008155600101611072565b600082601f830112611096578081fd5b813567ffffffffffffffff808211156110b1576110b1611529565b604051601f8301601f19908116603f011681019082821181831017156110d9576110d9611529565b816040528381528660208588010111156110f1578485fd5b8360208701602083013792830160200193909352509392505050565b60006020828403121561111e578081fd5b81518015158114610cf9578182fd5b60006020828403121561113e578081fd5b5035919050565b60008060408385031215611157578081fd5b50508035926020909101359150565b6000806000806080858703121561117b578182fd5b843593506020850135925060408501356001600160e01b0319811681146111a0578283fd5b9396929550929360600135925050565b600080604083850312156111c2578182fd5b823567ffffffffffffffff808211156111d9578384fd5b6111e586838701611086565b935060208501359150808211156111fa578283fd5b5061120785828601611086565b9150509250929050565b600060208284031215611222578081fd5b5051919050565b60008151808452815b8181101561124e57602081850181015186830182015201611232565b8181111561125f5782602083870101525b50601f01601f19169290920160200192915050565b6001600160a01b0389811682526020820189905260408201889052861660608201526001600160e01b03198516608082015260a0810184905260c0810183905261010060e082018190526000906112cd83820185611229565b9b9a5050505050505050505050565b60018060a01b03841681528260208201526060604082015260006107a06060830184611229565b8481528360208201526080604082015260006113226080830185611229565b905082606083015295945050505050565b602081526000610cf96020830184611229565b6000821982111561135957611359611513565b500190565b600181815b8085111561139957816000190482111561137f5761137f611513565b8085161561138c57918102915b93841c9390800290611363565b509250929050565b6000610cf983836000826113b75750600161074f565b816113c45750600061074f565b81600181146113da57600281146113e457611400565b600191505061074f565b60ff8411156113f5576113f5611513565b50506001821b61074f565b5060208310610133831016604e8410600b8410161715611423575081810a61074f565b61142d838361135e565b806000190482111561144157611441611513565b029392505050565b600081600019048311821515161561146357611463611513565b500290565b60008083128015600160ff1b85018412161561148657611486611513565b6001600160ff1b03840183138116156114a1576114a1611513565b50500390565b6000828210156114b9576114b9611513565b500390565b600181811c908216806114d257607f821691505b60208210811415610f9557634e487b7160e01b600052602260045260246000fd5b60008261150e57634e487b7160e01b81526012600452602481fd5b500690565b634e487b7160e01b600052601160045260246000fd5b634e487b7160e01b600052604160045260246000fdfea264697066735822122066f194a68dbabe2749450b292500d2451456a80a6836d8a025263f70f487db4264736f6c63430008040033",
  "linkReferences": {},
  "deployedLinkReferences": {}
}